{
  "_format": "hh-sol-artifact-1",
  "contractName": "concert",
  "sourceName": "contracts/Concert.sol",
  "abi": [
    {
      "inputs": [
        {
          "internalType": "uint256",
          "name": "_maxTickets",
          "type": "uint256"
        },
        {
          "internalType": "uint256",
          "name": "_ticketPrice",
          "type": "uint256"
        },
        {
          "internalType": "string",
          "name": "_concertName",
          "type": "string"
        },
        {
          "internalType": "address",
          "name": "_owner",
          "type": "address"
        },
        {
          "internalType": "uint256",
          "name": "_concertTime",
          "type": "uint256"
        }
      ],
      "stateMutability": "nonpayable",
      "type": "constructor"
    },
    {
      "inputs": [
        {
          "internalType": "address",
          "name": "sender",
          "type": "address"
        },
        {
          "internalType": "uint256",
          "name": "tokenId",
          "type": "uint256"
        },
        {
          "internalType": "address",
          "name": "owner",
          "type": "address"
        }
      ],
      "name": "ERC721IncorrectOwner",
      "type": "error"
    },
    {
      "inputs": [
        {
          "internalType": "address",
          "name": "operator",
          "type": "address"
        },
        {
          "internalType": "uint256",
          "name": "tokenId",
          "type": "uint256"
        }
      ],
      "name": "ERC721InsufficientApproval",
      "type": "error"
    },
    {
      "inputs": [
        {
          "internalType": "address",
          "name": "approver",
          "type": "address"
        }
      ],
      "name": "ERC721InvalidApprover",
      "type": "error"
    },
    {
      "inputs": [
        {
          "internalType": "address",
          "name": "operator",
          "type": "address"
        }
      ],
      "name": "ERC721InvalidOperator",
      "type": "error"
    },
    {
      "inputs": [
        {
          "internalType": "address",
          "name": "owner",
          "type": "address"
        }
      ],
      "name": "ERC721InvalidOwner",
      "type": "error"
    },
    {
      "inputs": [
        {
          "internalType": "address",
          "name": "receiver",
          "type": "address"
        }
      ],
      "name": "ERC721InvalidReceiver",
      "type": "error"
    },
    {
      "inputs": [
        {
          "internalType": "address",
          "name": "sender",
          "type": "address"
        }
      ],
      "name": "ERC721InvalidSender",
      "type": "error"
    },
    {
      "inputs": [
        {
          "internalType": "uint256",
          "name": "tokenId",
          "type": "uint256"
        }
      ],
      "name": "ERC721NonexistentToken",
      "type": "error"
    },
    {
      "inputs": [
        {
          "internalType": "address",
          "name": "owner",
          "type": "address"
        }
      ],
      "name": "OwnableInvalidOwner",
      "type": "error"
    },
    {
      "inputs": [
        {
          "internalType": "address",
          "name": "account",
          "type": "address"
        }
      ],
      "name": "OwnableUnauthorizedAccount",
      "type": "error"
    },
    {
      "anonymous": false,
      "inputs": [
        {
          "indexed": true,
          "internalType": "address",
          "name": "owner",
          "type": "address"
        },
        {
          "indexed": true,
          "internalType": "address",
          "name": "approved",
          "type": "address"
        },
        {
          "indexed": true,
          "internalType": "uint256",
          "name": "tokenId",
          "type": "uint256"
        }
      ],
      "name": "Approval",
      "type": "event"
    },
    {
      "anonymous": false,
      "inputs": [
        {
          "indexed": true,
          "internalType": "address",
          "name": "owner",
          "type": "address"
        },
        {
          "indexed": true,
          "internalType": "address",
          "name": "operator",
          "type": "address"
        },
        {
          "indexed": false,
          "internalType": "bool",
          "name": "approved",
          "type": "bool"
        }
      ],
      "name": "ApprovalForAll",
      "type": "event"
    },
    {
      "anonymous": false,
      "inputs": [
        {
          "indexed": false,
          "internalType": "uint256",
          "name": "_fromTokenId",
          "type": "uint256"
        },
        {
          "indexed": false,
          "internalType": "uint256",
          "name": "_toTokenId",
          "type": "uint256"
        }
      ],
      "name": "BatchMetadataUpdate",
      "type": "event"
    },
    {
      "anonymous": false,
      "inputs": [
        {
          "indexed": false,
          "internalType": "uint256",
          "name": "_tokenId",
          "type": "uint256"
        }
      ],
      "name": "MetadataUpdate",
      "type": "event"
    },
    {
      "anonymous": false,
      "inputs": [
        {
          "indexed": true,
          "internalType": "address",
          "name": "previousOwner",
          "type": "address"
        },
        {
          "indexed": true,
          "internalType": "address",
          "name": "newOwner",
          "type": "address"
        }
      ],
      "name": "OwnershipTransferred",
      "type": "event"
    },
    {
      "anonymous": false,
      "inputs": [
        {
          "indexed": true,
          "internalType": "address",
          "name": "from",
          "type": "address"
        },
        {
          "indexed": true,
          "internalType": "address",
          "name": "to",
          "type": "address"
        },
        {
          "indexed": true,
          "internalType": "uint256",
          "name": "tokenId",
          "type": "uint256"
        }
      ],
      "name": "Transfer",
      "type": "event"
    },
    {
      "inputs": [
        {
          "internalType": "address",
          "name": "to",
          "type": "address"
        },
        {
          "internalType": "uint256",
          "name": "tokenId",
          "type": "uint256"
        }
      ],
      "name": "approve",
      "outputs": [],
      "stateMutability": "nonpayable",
      "type": "function"
    },
    {
      "inputs": [
        {
          "internalType": "address",
          "name": "owner",
          "type": "address"
        }
      ],
      "name": "balanceOf",
      "outputs": [
        {
          "internalType": "uint256",
          "name": "",
          "type": "uint256"
        }
      ],
      "stateMutability": "view",
      "type": "function"
    },
    {
      "inputs": [
        {
          "internalType": "string",
          "name": "_IDNumber",
          "type": "string"
        }
      ],
      "name": "binding",
      "outputs": [],
      "stateMutability": "nonpayable",
      "type": "function"
    },
    {
      "inputs": [
        {
          "internalType": "address",
          "name": "buyer",
          "type": "address"
        },
        {
          "internalType": "string",
          "name": "tokenURI",
          "type": "string"
        },
        {
          "internalType": "string",
          "name": "ID",
          "type": "string"
        }
      ],
      "name": "buyTicket",
      "outputs": [],
      "stateMutability": "payable",
      "type": "function"
    },
    {
      "inputs": [],
      "name": "concertTime",
      "outputs": [
        {
          "internalType": "uint256",
          "name": "",
          "type": "uint256"
        }
      ],
      "stateMutability": "view",
      "type": "function"
    },
    {
      "inputs": [],
      "name": "endSale",
      "outputs": [],
      "stateMutability": "nonpayable",
      "type": "function"
    },
    {
      "inputs": [
        {
          "internalType": "uint256",
          "name": "tokenId",
          "type": "uint256"
        }
      ],
      "name": "getApproved",
      "outputs": [
        {
          "internalType": "address",
          "name": "",
          "type": "address"
        }
      ],
      "stateMutability": "view",
      "type": "function"
    },
    {
      "inputs": [
        {
          "internalType": "address",
          "name": "",
          "type": "address"
        }
      ],
      "name": "hasTicket",
      "outputs": [
        {
          "internalType": "bool",
          "name": "",
          "type": "bool"
        }
      ],
      "stateMutability": "view",
      "type": "function"
    },
    {
      "inputs": [
        {
          "internalType": "string",
          "name": "",
          "type": "string"
        }
      ],
      "name": "idToAccount",
      "outputs": [
        {
          "internalType": "address",
          "name": "",
          "type": "address"
        }
      ],
      "stateMutability": "view",
      "type": "function"
    },
    {
      "inputs": [
        {
          "internalType": "address",
          "name": "owner",
          "type": "address"
        },
        {
          "internalType": "address",
          "name": "operator",
          "type": "address"
        }
      ],
      "name": "isApprovedForAll",
      "outputs": [
        {
          "internalType": "bool",
          "name": "",
          "type": "bool"
        }
      ],
      "stateMutability": "view",
      "type": "function"
    },
    {
      "inputs": [],
      "name": "maxTickets",
      "outputs": [
        {
          "internalType": "uint256",
          "name": "",
          "type": "uint256"
        }
      ],
      "stateMutability": "view",
      "type": "function"
    },
    {
      "inputs": [],
      "name": "name",
      "outputs": [
        {
          "internalType": "string",
          "name": "",
          "type": "string"
        }
      ],
      "stateMutability": "view",
      "type": "function"
    },
    {
      "inputs": [],
      "name": "owner",
      "outputs": [
        {
          "internalType": "address",
          "name": "",
          "type": "address"
        }
      ],
      "stateMutability": "view",
      "type": "function"
    },
    {
      "inputs": [
        {
          "internalType": "uint256",
          "name": "tokenId",
          "type": "uint256"
        }
      ],
      "name": "ownerOf",
      "outputs": [
        {
          "internalType": "address",
          "name": "",
          "type": "address"
        }
      ],
      "stateMutability": "view",
      "type": "function"
    },
    {
      "inputs": [],
      "name": "renounceOwnership",
      "outputs": [],
      "stateMutability": "nonpayable",
      "type": "function"
    },
    {
      "inputs": [
        {
          "internalType": "address",
          "name": "from",
          "type": "address"
        },
        {
          "internalType": "address",
          "name": "to",
          "type": "address"
        },
        {
          "internalType": "uint256",
          "name": "tokenId",
          "type": "uint256"
        }
      ],
      "name": "safeTransferFrom",
      "outputs": [],
      "stateMutability": "nonpayable",
      "type": "function"
    },
    {
      "inputs": [
        {
          "internalType": "address",
          "name": "from",
          "type": "address"
        },
        {
          "internalType": "address",
          "name": "to",
          "type": "address"
        },
        {
          "internalType": "uint256",
          "name": "tokenId",
          "type": "uint256"
        },
        {
          "internalType": "bytes",
          "name": "data",
          "type": "bytes"
        }
      ],
      "name": "safeTransferFrom",
      "outputs": [],
      "stateMutability": "nonpayable",
      "type": "function"
    },
    {
      "inputs": [],
      "name": "saleActive",
      "outputs": [
        {
          "internalType": "bool",
          "name": "",
          "type": "bool"
        }
      ],
      "stateMutability": "view",
      "type": "function"
    },
    {
      "inputs": [
        {
          "internalType": "address",
          "name": "operator",
          "type": "address"
        },
        {
          "internalType": "bool",
          "name": "approved",
          "type": "bool"
        }
      ],
      "name": "setApprovalForAll",
      "outputs": [],
      "stateMutability": "nonpayable",
      "type": "function"
    },
    {
      "inputs": [],
      "name": "startSale",
      "outputs": [],
      "stateMutability": "nonpayable",
      "type": "function"
    },
    {
      "inputs": [
        {
          "internalType": "bytes4",
          "name": "interfaceId",
          "type": "bytes4"
        }
      ],
      "name": "supportsInterface",
      "outputs": [
        {
          "internalType": "bool",
          "name": "",
          "type": "bool"
        }
      ],
      "stateMutability": "view",
      "type": "function"
    },
    {
      "inputs": [],
      "name": "symbol",
      "outputs": [
        {
          "internalType": "string",
          "name": "",
          "type": "string"
        }
      ],
      "stateMutability": "view",
      "type": "function"
    },
    {
      "inputs": [],
      "name": "ticketId",
      "outputs": [
        {
          "internalType": "uint256",
          "name": "",
          "type": "uint256"
        }
      ],
      "stateMutability": "view",
      "type": "function"
    },
    {
      "inputs": [],
      "name": "ticketPrice",
      "outputs": [
        {
          "internalType": "uint256",
          "name": "",
          "type": "uint256"
        }
      ],
      "stateMutability": "view",
      "type": "function"
    },
    {
      "inputs": [
        {
          "internalType": "uint256",
          "name": "tokenId",
          "type": "uint256"
        }
      ],
      "name": "tokenURI",
      "outputs": [
        {
          "internalType": "string",
          "name": "",
          "type": "string"
        }
      ],
      "stateMutability": "view",
      "type": "function"
    },
    {
      "inputs": [
        {
          "internalType": "address",
          "name": "owner",
          "type": "address"
        }
      ],
      "name": "tokensOfOwner",
      "outputs": [
        {
          "internalType": "uint256[]",
          "name": "",
          "type": "uint256[]"
        }
      ],
      "stateMutability": "view",
      "type": "function"
    },
    {
      "inputs": [
        {
          "internalType": "address",
          "name": "from",
          "type": "address"
        },
        {
          "internalType": "address",
          "name": "to",
          "type": "address"
        },
        {
          "internalType": "uint256",
          "name": "tokenId",
          "type": "uint256"
        }
      ],
      "name": "transferFrom",
      "outputs": [],
      "stateMutability": "nonpayable",
      "type": "function"
    },
    {
      "inputs": [
        {
          "internalType": "address",
          "name": "newOwner",
          "type": "address"
        }
      ],
      "name": "transferOwnership",
      "outputs": [],
      "stateMutability": "nonpayable",
      "type": "function"
    },
    {
      "inputs": [],
      "name": "withdraw",
      "outputs": [],
      "stateMutability": "nonpayable",
      "type": "function"
    }
  ],
  "bytecode": "0x608060405234801561001057600080fd5b506040516140553803806140558339818101604052810190610032919061041f565b81836040518060400160405280600381526020017f54434b0000000000000000000000000000000000000000000000000000000000815250816000908161007991906106cd565b50806001908161008991906106cd565b505050600073ffffffffffffffffffffffffffffffffffffffff168173ffffffffffffffffffffffffffffffffffffffff16036100fe5760006040517f1e4fbdf70000000000000000000000000000000000000000000000000000000081526004016100f591906107ae565b60405180910390fd5b61010d8161015060201b60201c565b5060006008819055508460098190555083600a819055506000600c60006101000a81548160ff02191690831515021790555080600b8190555050505050506107c9565b6000600760009054906101000a900473ffffffffffffffffffffffffffffffffffffffff16905081600760006101000a81548173ffffffffffffffffffffffffffffffffffffffff021916908373ffffffffffffffffffffffffffffffffffffffff1602179055508173ffffffffffffffffffffffffffffffffffffffff168173ffffffffffffffffffffffffffffffffffffffff167f8be0079c531659141344cd1fd0a4f28419497f9722a3daafe3b4186f6b6457e060405160405180910390a35050565b6000604051905090565b600080fd5b600080fd5b6000819050919050565b61023d8161022a565b811461024857600080fd5b50565b60008151905061025a81610234565b92915050565b600080fd5b600080fd5b6000601f19601f8301169050919050565b7f4e487b7100000000000000000000000000000000000000000000000000000000600052604160045260246000fd5b6102b38261026a565b810181811067ffffffffffffffff821117156102d2576102d161027b565b5b80604052505050565b60006102e5610216565b90506102f182826102aa565b919050565b600067ffffffffffffffff8211156103115761031061027b565b5b61031a8261026a565b9050602081019050919050565b60005b8381101561034557808201518184015260208101905061032a565b60008484015250505050565b600061036461035f846102f6565b6102db565b9050828152602081018484840111156103805761037f610265565b5b61038b848285610327565b509392505050565b600082601f8301126103a8576103a7610260565b5b81516103b8848260208601610351565b91505092915050565b600073ffffffffffffffffffffffffffffffffffffffff82169050919050565b60006103ec826103c1565b9050919050565b6103fc816103e1565b811461040757600080fd5b50565b600081519050610419816103f3565b92915050565b600080600080600060a0868803121561043b5761043a610220565b5b60006104498882890161024b565b955050602061045a8882890161024b565b945050604086015167ffffffffffffffff81111561047b5761047a610225565b5b61048788828901610393565b93505060606104988882890161040a565b92505060806104a98882890161024b565b9150509295509295909350565b600081519050919050565b7f4e487b7100000000000000000000000000000000000000000000000000000000600052602260045260246000fd5b6000600282049050600182168061050857607f821691505b60208210810361051b5761051a6104c1565b5b50919050565b60008190508160005260206000209050919050565b60006020601f8301049050919050565b600082821b905092915050565b6000600883026105837fffffffffffffffffffffffffffffffffffffffffffffffffffffffffffffffff82610546565b61058d8683610546565b95508019841693508086168417925050509392505050565b6000819050919050565b60006105ca6105c56105c08461022a565b6105a5565b61022a565b9050919050565b6000819050919050565b6105e4836105af565b6105f86105f0826105d1565b848454610553565b825550505050565b600090565b61060d610600565b6106188184846105db565b505050565b5b8181101561063c57610631600082610605565b60018101905061061e565b5050565b601f8211156106815761065281610521565b61065b84610536565b8101602085101561066a578190505b61067e61067685610536565b83018261061d565b50505b505050565b600082821c905092915050565b60006106a460001984600802610686565b1980831691505092915050565b60006106bd8383610693565b9150826002028217905092915050565b6106d6826104b6565b67ffffffffffffffff8111156106ef576106ee61027b565b5b6106f982546104f0565b610704828285610640565b600060209050601f8311600181146107375760008415610725578287015190505b61072f85826106b1565b865550610797565b601f19841661074586610521565b60005b8281101561076d57848901518255600182019150602085019450602081019050610748565b8683101561078a5784890151610786601f891682610693565b8355505b6001600288020188555050505b505050505050565b6107a8816103e1565b82525050565b60006020820190506107c3600083018461079f565b92915050565b61387d806107d86000396000f3fe6080604052600436106101c25760003560e01c8063729fb9fc116100f7578063a22cb46511610095578063e2142fde11610064578063e2142fde1461060d578063e985e9c51461064a578063f2fde38b14610687578063f9f0164a146106b0576101c2565b8063a22cb46514610567578063b66a0e5d14610590578063b88d4fde146105a7578063c87b56dd146105d0576101c2565b80638462151c116100d15780638462151c146104a95780638da5cb5b146104e657806395d89b41146105115780639b8947031461053c576101c2565b8063729fb9fc1461042557806375fe0ed114610441578063795244b11461047e576101c2565b80633ccfd60b116101645780636352211e1161013e5780636352211e1461036957806368428a1b146103a657806370a08231146103d1578063715018a61461040e576101c2565b80633ccfd60b1461030057806342842e0e146103175780634b25f9a514610340576101c2565b8063095ea7b3116101a0578063095ea7b31461026c5780631209b1f61461029557806323b872dd146102c0578063380d831b146102e9576101c2565b806301ffc9a7146101c757806306fdde0314610204578063081812fc1461022f575b600080fd5b3480156101d357600080fd5b506101ee60048036038101906101e9919061267f565b6106db565b6040516101fb91906126c7565b60405180910390f35b34801561021057600080fd5b5061021961073c565b6040516102269190612772565b60405180910390f35b34801561023b57600080fd5b50610256600480360381019061025191906127ca565b6107ce565b6040516102639190612838565b60405180910390f35b34801561027857600080fd5b50610293600480360381019061028e919061287f565b6107ea565b005b3480156102a157600080fd5b506102aa610800565b6040516102b791906128ce565b60405180910390f35b3480156102cc57600080fd5b506102e760048036038101906102e291906128e9565b610806565b005b3480156102f557600080fd5b506102fe610908565b005b34801561030c57600080fd5b5061031561092d565b005b34801561032357600080fd5b5061033e600480360381019061033991906128e9565b610985565b005b34801561034c57600080fd5b5061036760048036038101906103629190612a71565b6109a5565b005b34801561037557600080fd5b50610390600480360381019061038b91906127ca565b610bda565b60405161039d9190612838565b60405180910390f35b3480156103b257600080fd5b506103bb610bec565b6040516103c891906126c7565b60405180910390f35b3480156103dd57600080fd5b506103f860048036038101906103f39190612aba565b610bff565b60405161040591906128ce565b60405180910390f35b34801561041a57600080fd5b50610423610cb9565b005b61043f600480360381019061043a9190612ae7565b610ccd565b005b34801561044d57600080fd5b5061046860048036038101906104639190612a71565b61101e565b6040516104759190612838565b60405180910390f35b34801561048a57600080fd5b50610493611067565b6040516104a091906128ce565b60405180910390f35b3480156104b557600080fd5b506104d060048036038101906104cb9190612aba565b61106d565b6040516104dd9190612c30565b60405180910390f35b3480156104f257600080fd5b506104fb611163565b6040516105089190612838565b60405180910390f35b34801561051d57600080fd5b5061052661118d565b6040516105339190612772565b60405180910390f35b34801561054857600080fd5b5061055161121f565b60405161055e91906128ce565b60405180910390f35b34801561057357600080fd5b5061058e60048036038101906105899190612c7e565b611225565b005b34801561059c57600080fd5b506105a561123b565b005b3480156105b357600080fd5b506105ce60048036038101906105c99190612d5f565b611260565b005b3480156105dc57600080fd5b506105f760048036038101906105f291906127ca565b611285565b6040516106049190612772565b60405180910390f35b34801561061957600080fd5b50610634600480360381019061062f9190612aba565b611398565b60405161064191906126c7565b60405180910390f35b34801561065657600080fd5b50610671600480360381019061066c9190612de2565b6113b8565b60405161067e91906126c7565b60405180910390f35b34801561069357600080fd5b506106ae60048036038101906106a99190612aba565b61144c565b005b3480156106bc57600080fd5b506106c56114d2565b6040516106d291906128ce565b60405180910390f35b6000634906490660e01b7bffffffffffffffffffffffffffffffffffffffffffffffffffffffff1916827bffffffffffffffffffffffffffffffffffffffffffffffffffffffff191614806107355750610734826114d8565b5b9050919050565b60606000805461074b90612e51565b80601f016020809104026020016040519081016040528092919081815260200182805461077790612e51565b80156107c45780601f10610799576101008083540402835291602001916107c4565b820191906000526020600020905b8154815290600101906020018083116107a757829003601f168201915b5050505050905090565b60006107d9826115ba565b506107e382611642565b9050919050565b6107fc82826107f761167f565b611687565b5050565b600a5481565b600073ffffffffffffffffffffffffffffffffffffffff168273ffffffffffffffffffffffffffffffffffffffff16036108785760006040517f64a0ae9200000000000000000000000000000000000000000000000000000000815260040161086f9190612838565b60405180910390fd5b600061088c838361088761167f565b611699565b90508373ffffffffffffffffffffffffffffffffffffffff168173ffffffffffffffffffffffffffffffffffffffff1614610902578382826040517f64283d7b0000000000000000000000000000000000000000000000000000000081526004016108f993929190612e82565b60405180910390fd5b50505050565b610910611763565b6000600c60006101000a81548160ff021916908315150217905550565b610935611763565b61093d611163565b73ffffffffffffffffffffffffffffffffffffffff166108fc479081150290604051600060405180830381858888f19350505050158015610982573d6000803e3d6000fd5b50565b6109a083838360405180602001604052806000815250611260565b505050565b6010816040516109b59190612ef5565b908152602001604051809103902060009054906101000a900460ff1615610a11576040517f08c379a0000000000000000000000000000000000000000000000000000000008152600401610a0890612f58565b60405180910390fd5b601160003373ffffffffffffffffffffffffffffffffffffffff1673ffffffffffffffffffffffffffffffffffffffff16815260200190815260200160002060009054906101000a900460ff1615610a9e576040517f08c379a0000000000000000000000000000000000000000000000000000000008152600401610a9590612fea565b60405180910390fd5b33600e82604051610aaf9190612ef5565b908152602001604051809103902060006101000a81548173ffffffffffffffffffffffffffffffffffffffff021916908373ffffffffffffffffffffffffffffffffffffffff16021790555080600f60003373ffffffffffffffffffffffffffffffffffffffff1673ffffffffffffffffffffffffffffffffffffffff1681526020019081526020016000209081610b4791906131b6565b506001601082604051610b5a9190612ef5565b908152602001604051809103902060006101000a81548160ff0219169083151502179055506001601160003373ffffffffffffffffffffffffffffffffffffffff1673ffffffffffffffffffffffffffffffffffffffff16815260200190815260200160002060006101000a81548160ff02191690831515021790555050565b6000610be5826115ba565b9050919050565b600c60009054906101000a900460ff1681565b60008073ffffffffffffffffffffffffffffffffffffffff168273ffffffffffffffffffffffffffffffffffffffff1603610c725760006040517f89c62b64000000000000000000000000000000000000000000000000000000008152600401610c699190612838565b60405180910390fd5b600360008373ffffffffffffffffffffffffffffffffffffffff1673ffffffffffffffffffffffffffffffffffffffff168152602001908152602001600020549050919050565b610cc1611763565b610ccb60006117ea565b565b600c60009054906101000a900460ff16610d1c576040517f08c379a0000000000000000000000000000000000000000000000000000000008152600401610d13906132d4565b60405180910390fd5b60095460085410610d62576040517f08c379a0000000000000000000000000000000000000000000000000000000008152600401610d5990613340565b60405180910390fd5b601081604051610d729190612ef5565b908152602001604051809103902060009054906101000a900460ff16610dcd576040517f08c379a0000000000000000000000000000000000000000000000000000000008152600401610dc4906133ac565b60405180910390fd5b8273ffffffffffffffffffffffffffffffffffffffff16600e82604051610df49190612ef5565b908152602001604051809103902060009054906101000a900473ffffffffffffffffffffffffffffffffffffffff1673ffffffffffffffffffffffffffffffffffffffff1614610e79576040517f08c379a0000000000000000000000000000000000000000000000000000000008152600401610e709061343e565b60405180910390fd5b600d60008473ffffffffffffffffffffffffffffffffffffffff1673ffffffffffffffffffffffffffffffffffffffff16815260200190815260200160002060009054906101000a900460ff1615610f06576040517f08c379a0000000000000000000000000000000000000000000000000000000008152600401610efd906134aa565b60405180910390fd5b600a54341015610f4b576040517f08c379a0000000000000000000000000000000000000000000000000000000008152600401610f4290613516565b60405180910390fd5b600a543414610f8f576040517f08c379a0000000000000000000000000000000000000000000000000000000008152600401610f8690613582565b60405180910390fd5b600160086000828254610fa291906135d1565b92505081905550610fb5836008546118b0565b610fc1600854836118ce565b6001600d60008573ffffffffffffffffffffffffffffffffffffffff1673ffffffffffffffffffffffffffffffffffffffff16815260200190815260200160002060006101000a81548160ff021916908315150217905550505050565b600e818051602081018201805184825260208301602085012081835280955050505050506000915054906101000a900473ffffffffffffffffffffffffffffffffffffffff1681565b600b5481565b6060600061107a83610bff565b905060008167ffffffffffffffff81111561109857611097612946565b5b6040519080825280602002602001820160405280156110c65781602001602082028036833780820191505090505b509050600080600190505b6008548111611157578573ffffffffffffffffffffffffffffffffffffffff166110fa8261192a565b73ffffffffffffffffffffffffffffffffffffffff1603611144578083838151811061112957611128613605565b5b602002602001018181525050818061114090613634565b9250505b808061114f90613634565b9150506110d1565b50819350505050919050565b6000600760009054906101000a900473ffffffffffffffffffffffffffffffffffffffff16905090565b60606001805461119c90612e51565b80601f01602080910402602001604051908101604052809291908181526020018280546111c890612e51565b80156112155780601f106111ea57610100808354040283529160200191611215565b820191906000526020600020905b8154815290600101906020018083116111f857829003601f168201915b5050505050905090565b60095481565b61123761123061167f565b8383611967565b5050565b611243611763565b6001600c60006101000a81548160ff021916908315150217905550565b61126b848484610806565b61127f61127661167f565b85858585611ad6565b50505050565b6060611290826115ba565b5060006006600084815260200190815260200160002080546112b190612e51565b80601f01602080910402602001604051908101604052809291908181526020018280546112dd90612e51565b801561132a5780601f106112ff5761010080835404028352916020019161132a565b820191906000526020600020905b81548152906001019060200180831161130d57829003601f168201915b50505050509050600061133b611c87565b90506000815103611350578192505050611393565b60008251111561138557808260405160200161136d92919061367c565b60405160208183030381529060405292505050611393565b61138e84611c9e565b925050505b919050565b600d6020528060005260406000206000915054906101000a900460ff1681565b6000600560008473ffffffffffffffffffffffffffffffffffffffff1673ffffffffffffffffffffffffffffffffffffffff16815260200190815260200160002060008373ffffffffffffffffffffffffffffffffffffffff1673ffffffffffffffffffffffffffffffffffffffff16815260200190815260200160002060009054906101000a900460ff16905092915050565b611454611763565b600073ffffffffffffffffffffffffffffffffffffffff168173ffffffffffffffffffffffffffffffffffffffff16036114c65760006040517f1e4fbdf70000000000000000000000000000000000000000000000000000000081526004016114bd9190612838565b60405180910390fd5b6114cf816117ea565b50565b60085481565b60007f80ac58cd000000000000000000000000000000000000000000000000000000007bffffffffffffffffffffffffffffffffffffffffffffffffffffffff1916827bffffffffffffffffffffffffffffffffffffffffffffffffffffffff191614806115a357507f5b5e139f000000000000000000000000000000000000000000000000000000007bffffffffffffffffffffffffffffffffffffffffffffffffffffffff1916827bffffffffffffffffffffffffffffffffffffffffffffffffffffffff1916145b806115b357506115b282611d07565b5b9050919050565b6000806115c68361192a565b9050600073ffffffffffffffffffffffffffffffffffffffff168173ffffffffffffffffffffffffffffffffffffffff160361163957826040517f7e27328900000000000000000000000000000000000000000000000000000000815260040161163091906128ce565b60405180910390fd5b80915050919050565b60006004600083815260200190815260200160002060009054906101000a900473ffffffffffffffffffffffffffffffffffffffff169050919050565b600033905090565b6116948383836001611d71565b505050565b6000806116a58461192a565b9050600073ffffffffffffffffffffffffffffffffffffffff168173ffffffffffffffffffffffffffffffffffffffff16148061170f5750600073ffffffffffffffffffffffffffffffffffffffff168573ffffffffffffffffffffffffffffffffffffffff1614155b61174e576040517f08c379a0000000000000000000000000000000000000000000000000000000008152600401611745906136ec565b60405180910390fd5b611759858585611f36565b9150509392505050565b61176b61167f565b73ffffffffffffffffffffffffffffffffffffffff16611789611163565b73ffffffffffffffffffffffffffffffffffffffff16146117e8576117ac61167f565b6040517f118cdaa70000000000000000000000000000000000000000000000000000000081526004016117df9190612838565b60405180910390fd5b565b6000600760009054906101000a900473ffffffffffffffffffffffffffffffffffffffff16905081600760006101000a81548173ffffffffffffffffffffffffffffffffffffffff021916908373ffffffffffffffffffffffffffffffffffffffff1602179055508173ffffffffffffffffffffffffffffffffffffffff168173ffffffffffffffffffffffffffffffffffffffff167f8be0079c531659141344cd1fd0a4f28419497f9722a3daafe3b4186f6b6457e060405160405180910390a35050565b6118ca828260405180602001604052806000815250612150565b5050565b806006600084815260200190815260200160002090816118ee91906131b6565b507ff8e1a15aba9398e019f0b49df1a4fde98ee17ae345cb5f6b5e2c27f5033e8ce78260405161191e91906128ce565b60405180910390a15050565b60006002600083815260200190815260200160002060009054906101000a900473ffffffffffffffffffffffffffffffffffffffff169050919050565b600073ffffffffffffffffffffffffffffffffffffffff168273ffffffffffffffffffffffffffffffffffffffff16036119d857816040517f5b08ba180000000000000000000000000000000000000000000000000000000081526004016119cf9190612838565b60405180910390fd5b80600560008573ffffffffffffffffffffffffffffffffffffffff1673ffffffffffffffffffffffffffffffffffffffff16815260200190815260200160002060008473ffffffffffffffffffffffffffffffffffffffff1673ffffffffffffffffffffffffffffffffffffffff16815260200190815260200160002060006101000a81548160ff0219169083151502179055508173ffffffffffffffffffffffffffffffffffffffff168373ffffffffffffffffffffffffffffffffffffffff167f17307eab39ab6107e8899845ad3d59bd9653f200f220920489ca2b5937696c3183604051611ac991906126c7565b60405180910390a3505050565b60008373ffffffffffffffffffffffffffffffffffffffff163b1115611c80578273ffffffffffffffffffffffffffffffffffffffff1663150b7a02868685856040518563ffffffff1660e01b8152600401611b359493929190613761565b6020604051808303816000875af1925050508015611b7157506040513d601f19601f82011682018060405250810190611b6e91906137c2565b60015b611bf5573d8060008114611ba1576040519150601f19603f3d011682016040523d82523d6000602084013e611ba6565b606091505b506000815103611bed57836040517f64a0ae92000000000000000000000000000000000000000000000000000000008152600401611be49190612838565b60405180910390fd5b805181602001fd5b63150b7a0260e01b7bffffffffffffffffffffffffffffffffffffffffffffffffffffffff1916817bffffffffffffffffffffffffffffffffffffffffffffffffffffffff191614611c7e57836040517f64a0ae92000000000000000000000000000000000000000000000000000000008152600401611c759190612838565b60405180910390fd5b505b5050505050565b606060405180602001604052806000815250905090565b6060611ca9826115ba565b506000611cb4611c87565b90506000815111611cd45760405180602001604052806000815250611cff565b80611cde84612174565b604051602001611cef92919061367c565b6040516020818303038152906040525b915050919050565b60007f01ffc9a7000000000000000000000000000000000000000000000000000000007bffffffffffffffffffffffffffffffffffffffffffffffffffffffff1916827bffffffffffffffffffffffffffffffffffffffffffffffffffffffff1916149050919050565b8080611daa5750600073ffffffffffffffffffffffffffffffffffffffff168273ffffffffffffffffffffffffffffffffffffffff1614155b15611ede576000611dba846115ba565b9050600073ffffffffffffffffffffffffffffffffffffffff168373ffffffffffffffffffffffffffffffffffffffff1614158015611e2557508273ffffffffffffffffffffffffffffffffffffffff168173ffffffffffffffffffffffffffffffffffffffff1614155b8015611e385750611e3681846113b8565b155b15611e7a57826040517fa9fbf51f000000000000000000000000000000000000000000000000000000008152600401611e719190612838565b60405180910390fd5b8115611edc57838573ffffffffffffffffffffffffffffffffffffffff168273ffffffffffffffffffffffffffffffffffffffff167f8c5be1e5ebec7d5bd14f71427d1e84f3dd0314c0f7b2291e5b200ac8c7c3b92560405160405180910390a45b505b836004600085815260200190815260200160002060006101000a81548173ffffffffffffffffffffffffffffffffffffffff021916908373ffffffffffffffffffffffffffffffffffffffff16021790555050505050565b600080611f428461192a565b9050600073ffffffffffffffffffffffffffffffffffffffff168373ffffffffffffffffffffffffffffffffffffffff1614611f8457611f83818486612242565b5b600073ffffffffffffffffffffffffffffffffffffffff168173ffffffffffffffffffffffffffffffffffffffff161461201557611fc6600085600080611d71565b6001600360008373ffffffffffffffffffffffffffffffffffffffff1673ffffffffffffffffffffffffffffffffffffffff168152602001908152602001600020600082825403925050819055505b600073ffffffffffffffffffffffffffffffffffffffff168573ffffffffffffffffffffffffffffffffffffffff1614612098576001600360008773ffffffffffffffffffffffffffffffffffffffff1673ffffffffffffffffffffffffffffffffffffffff168152602001908152602001600020600082825401925050819055505b846002600086815260200190815260200160002060006101000a81548173ffffffffffffffffffffffffffffffffffffffff021916908373ffffffffffffffffffffffffffffffffffffffff160217905550838573ffffffffffffffffffffffffffffffffffffffff168273ffffffffffffffffffffffffffffffffffffffff167fddf252ad1be2c89b69c2b068fc378daa952ba7f163c4a11628f55a4df523b3ef60405160405180910390a4809150509392505050565b61215a8383612306565b61216f61216561167f565b6000858585611ad6565b505050565b606060006001612183846123ff565b01905060008167ffffffffffffffff8111156121a2576121a1612946565b5b6040519080825280601f01601f1916602001820160405280156121d45781602001600182028036833780820191505090505b509050600082602001820190505b600115612237578080600190039150507f3031323334353637383961626364656600000000000000000000000000000000600a86061a8153600a858161222b5761222a6137ef565b5b049450600085036121e2575b819350505050919050565b61224d838383612552565b61230157600073ffffffffffffffffffffffffffffffffffffffff168373ffffffffffffffffffffffffffffffffffffffff16036122c257806040517f7e2732890000000000000000000000000000000000000000000000000000000081526004016122b991906128ce565b60405180910390fd5b81816040517f177e802f0000000000000000000000000000000000000000000000000000000081526004016122f892919061381e565b60405180910390fd5b505050565b600073ffffffffffffffffffffffffffffffffffffffff168273ffffffffffffffffffffffffffffffffffffffff16036123785760006040517f64a0ae9200000000000000000000000000000000000000000000000000000000815260040161236f9190612838565b60405180910390fd5b600061238683836000611699565b9050600073ffffffffffffffffffffffffffffffffffffffff168173ffffffffffffffffffffffffffffffffffffffff16146123fa5760006040517f73c6ac6e0000000000000000000000000000000000000000000000000000000081526004016123f19190612838565b60405180910390fd5b505050565b600080600090507a184f03e93ff9f4daa797ed6e38ed64bf6a1f010000000000000000831061245d577a184f03e93ff9f4daa797ed6e38ed64bf6a1f0100000000000000008381612453576124526137ef565b5b0492506040810190505b6d04ee2d6d415b85acef8100000000831061249a576d04ee2d6d415b85acef810000000083816124905761248f6137ef565b5b0492506020810190505b662386f26fc1000083106124c957662386f26fc1000083816124bf576124be6137ef565b5b0492506010810190505b6305f5e10083106124f2576305f5e10083816124e8576124e76137ef565b5b0492506008810190505b612710831061251757612710838161250d5761250c6137ef565b5b0492506004810190505b6064831061253a57606483816125305761252f6137ef565b5b0492506002810190505b600a8310612549576001810190505b80915050919050565b60008073ffffffffffffffffffffffffffffffffffffffff168373ffffffffffffffffffffffffffffffffffffffff161415801561260a57508273ffffffffffffffffffffffffffffffffffffffff168473ffffffffffffffffffffffffffffffffffffffff1614806125cb57506125ca84846113b8565b5b8061260957508273ffffffffffffffffffffffffffffffffffffffff166125f183611642565b73ffffffffffffffffffffffffffffffffffffffff16145b5b90509392505050565b6000604051905090565b600080fd5b600080fd5b60007fffffffff0000000000000000000000000000000000000000000000000000000082169050919050565b61265c81612627565b811461266757600080fd5b50565b60008135905061267981612653565b92915050565b6000602082840312156126955761269461261d565b5b60006126a38482850161266a565b91505092915050565b60008115159050919050565b6126c1816126ac565b82525050565b60006020820190506126dc60008301846126b8565b92915050565b600081519050919050565b600082825260208201905092915050565b60005b8381101561271c578082015181840152602081019050612701565b60008484015250505050565b6000601f19601f8301169050919050565b6000612744826126e2565b61274e81856126ed565b935061275e8185602086016126fe565b61276781612728565b840191505092915050565b6000602082019050818103600083015261278c8184612739565b905092915050565b6000819050919050565b6127a781612794565b81146127b257600080fd5b50565b6000813590506127c48161279e565b92915050565b6000602082840312156127e0576127df61261d565b5b60006127ee848285016127b5565b91505092915050565b600073ffffffffffffffffffffffffffffffffffffffff82169050919050565b6000612822826127f7565b9050919050565b61283281612817565b82525050565b600060208201905061284d6000830184612829565b92915050565b61285c81612817565b811461286757600080fd5b50565b60008135905061287981612853565b92915050565b600080604083850312156128965761289561261d565b5b60006128a48582860161286a565b92505060206128b5858286016127b5565b9150509250929050565b6128c881612794565b82525050565b60006020820190506128e360008301846128bf565b92915050565b6000806000606084860312156129025761290161261d565b5b60006129108682870161286a565b93505060206129218682870161286a565b9250506040612932868287016127b5565b9150509250925092565b600080fd5b600080fd5b7f4e487b7100000000000000000000000000000000000000000000000000000000600052604160045260246000fd5b61297e82612728565b810181811067ffffffffffffffff8211171561299d5761299c612946565b5b80604052505050565b60006129b0612613565b90506129bc8282612975565b919050565b600067ffffffffffffffff8211156129dc576129db612946565b5b6129e582612728565b9050602081019050919050565b82818337600083830152505050565b6000612a14612a0f846129c1565b6129a6565b905082815260208101848484011115612a3057612a2f612941565b5b612a3b8482856129f2565b509392505050565b600082601f830112612a5857612a5761293c565b5b8135612a68848260208601612a01565b91505092915050565b600060208284031215612a8757612a8661261d565b5b600082013567ffffffffffffffff811115612aa557612aa4612622565b5b612ab184828501612a43565b91505092915050565b600060208284031215612ad057612acf61261d565b5b6000612ade8482850161286a565b91505092915050565b600080600060608486031215612b0057612aff61261d565b5b6000612b0e8682870161286a565b935050602084013567ffffffffffffffff811115612b2f57612b2e612622565b5b612b3b86828701612a43565b925050604084013567ffffffffffffffff811115612b5c57612b5b612622565b5b612b6886828701612a43565b9150509250925092565b600081519050919050565b600082825260208201905092915050565b6000819050602082019050919050565b612ba781612794565b82525050565b6000612bb98383612b9e565b60208301905092915050565b6000602082019050919050565b6000612bdd82612b72565b612be78185612b7d565b9350612bf283612b8e565b8060005b83811015612c23578151612c0a8882612bad565b9750612c1583612bc5565b925050600181019050612bf6565b5085935050505092915050565b60006020820190508181036000830152612c4a8184612bd2565b905092915050565b612c5b816126ac565b8114612c6657600080fd5b50565b600081359050612c7881612c52565b92915050565b60008060408385031215612c9557612c9461261d565b5b6000612ca38582860161286a565b9250506020612cb485828601612c69565b9150509250929050565b600067ffffffffffffffff821115612cd957612cd8612946565b5b612ce282612728565b9050602081019050919050565b6000612d02612cfd84612cbe565b6129a6565b905082815260208101848484011115612d1e57612d1d612941565b5b612d298482856129f2565b509392505050565b600082601f830112612d4657612d4561293c565b5b8135612d56848260208601612cef565b91505092915050565b60008060008060808587031215612d7957612d7861261d565b5b6000612d878782880161286a565b9450506020612d988782880161286a565b9350506040612da9878288016127b5565b925050606085013567ffffffffffffffff811115612dca57612dc9612622565b5b612dd687828801612d31565b91505092959194509250565b60008060408385031215612df957612df861261d565b5b6000612e078582860161286a565b9250506020612e188582860161286a565b9150509250929050565b7f4e487b7100000000000000000000000000000000000000000000000000000000600052602260045260246000fd5b60006002820490506001821680612e6957607f821691505b602082108103612e7c57612e7b612e22565b5b50919050565b6000606082019050612e976000830186612829565b612ea460208301856128bf565b612eb16040830184612829565b949350505050565b600081905092915050565b6000612ecf826126e2565b612ed98185612eb9565b9350612ee98185602086016126fe565b80840191505092915050565b6000612f018284612ec4565b915081905092915050565b7f796f757420494420697320616c72656164792072656769737465726564000000600082015250565b6000612f42601d836126ed565b9150612f4d82612f0c565b602082019050919050565b60006020820190508181036000830152612f7181612f35565b9050919050565b7f796f7574206163636f756e7420697320616c726561647920726567697374657260008201527f6564000000000000000000000000000000000000000000000000000000000000602082015250565b6000612fd46022836126ed565b9150612fdf82612f78565b604082019050919050565b6000602082019050818103600083015261300381612fc7565b9050919050565b60008190508160005260206000209050919050565b60006020601f8301049050919050565b600082821b905092915050565b60006008830261306c7fffffffffffffffffffffffffffffffffffffffffffffffffffffffffffffffff8261302f565b613076868361302f565b95508019841693508086168417925050509392505050565b6000819050919050565b60006130b36130ae6130a984612794565b61308e565b612794565b9050919050565b6000819050919050565b6130cd83613098565b6130e16130d9826130ba565b84845461303c565b825550505050565b600090565b6130f66130e9565b6131018184846130c4565b505050565b5b818110156131255761311a6000826130ee565b600181019050613107565b5050565b601f82111561316a5761313b8161300a565b6131448461301f565b81016020851015613153578190505b61316761315f8561301f565b830182613106565b50505b505050565b600082821c905092915050565b600061318d6000198460080261316f565b1980831691505092915050565b60006131a6838361317c565b9150826002028217905092915050565b6131bf826126e2565b67ffffffffffffffff8111156131d8576131d7612946565b5b6131e28254612e51565b6131ed828285613129565b600060209050601f831160018114613220576000841561320e578287015190505b613218858261319a565b865550613280565b601f19841661322e8661300a565b60005b8281101561325657848901518255600182019150602085019450602081019050613231565b86831015613273578489015161326f601f89168261317c565b8355505b6001600288020188555050505b505050505050565b7f73616c65206861736e277420626567696e000000000000000000000000000000600082015250565b60006132be6011836126ed565b91506132c982613288565b602082019050919050565b600060208201905081810360008301526132ed816132b1565b9050919050565b7f416c6c207469636b6574732068617665206265656e20736f6c64000000000000600082015250565b600061332a601a836126ed565b9150613335826132f4565b602082019050919050565b600060208201905081810360008301526133598161331d565b9050919050565b7f54686973204944206973206e6f74207265676973746572656400000000000000600082015250565b60006133966019836126ed565b91506133a182613360565b602082019050919050565b600060208201905081810360008301526133c581613389565b9050919050565b7f54686973204944206973206e6f74207573696e67207468652062696e6465642060008201527f72656769737465726564206163636f756e740000000000000000000000000000602082015250565b60006134286032836126ed565b9150613433826133cc565b604082019050919050565b600060208201905081810360008301526134578161341b565b9050919050565b7f596f7520616c7265616479206f776e2061207469636b65740000000000000000600082015250565b60006134946018836126ed565b915061349f8261345e565b602082019050919050565b600060208201905081810360008301526134c381613487565b9050919050565b7f4e6f7420656e6f7567682045746865722073656e740000000000000000000000600082015250565b60006135006015836126ed565b915061350b826134ca565b602082019050919050565b6000602082019050818103600083015261352f816134f3565b9050919050565b7f746f6f206d7563682045746865722073656e7400000000000000000000000000600082015250565b600061356c6013836126ed565b915061357782613536565b602082019050919050565b6000602082019050818103600083015261359b8161355f565b9050919050565b7f4e487b7100000000000000000000000000000000000000000000000000000000600052601160045260246000fd5b60006135dc82612794565b91506135e783612794565b92508282019050808211156135ff576135fe6135a2565b5b92915050565b7f4e487b7100000000000000000000000000000000000000000000000000000000600052603260045260246000fd5b600061363f82612794565b91507fffffffffffffffffffffffffffffffffffffffffffffffffffffffffffffffff8203613671576136706135a2565b5b600182019050919050565b60006136888285612ec4565b91506136948284612ec4565b91508190509392505050565b7f43616e6e6f74206265207472616e736665726564000000000000000000000000600082015250565b60006136d66014836126ed565b91506136e1826136a0565b602082019050919050565b60006020820190508181036000830152613705816136c9565b9050919050565b600081519050919050565b600082825260208201905092915050565b60006137338261370c565b61373d8185613717565b935061374d8185602086016126fe565b61375681612728565b840191505092915050565b60006080820190506137766000830187612829565b6137836020830186612829565b61379060408301856128bf565b81810360608301526137a28184613728565b905095945050505050565b6000815190506137bc81612653565b92915050565b6000602082840312156137d8576137d761261d565b5b60006137e6848285016137ad565b91505092915050565b7f4e487b7100000000000000000000000000000000000000000000000000000000600052601260045260246000fd5b60006040820190506138336000830185612829565b61384060208301846128bf565b939250505056fea2646970667358221220d3b79a84e3400ace4505f9ec53510ba317ce45c71f8090e5ca5c321632ab345764736f6c634300081b0033",
  "linkReferences": {},
  "deployedLinkReferences": {}
}