{
  "_format": "hh-sol-artifact-1",
  "contractName": "ConcertFactory",
  "sourceName": "contracts/ConcertFactory.sol",
  "abi": [
    {
      "anonymous": false,
      "inputs": [
        {
          "indexed": true,
          "internalType": "address",
          "name": "concertAddress",
          "type": "address"
        },
        {
          "indexed": false,
          "internalType": "string",
          "name": "name",
          "type": "string"
        }
      ],
      "name": "ConcertCreated",
      "type": "event"
    },
    {
      "inputs": [
        {
          "internalType": "uint256",
          "name": "",
          "type": "uint256"
        }
      ],
      "name": "allConcerts",
      "outputs": [
        {
          "internalType": "address",
          "name": "",
          "type": "address"
        }
      ],
      "stateMutability": "view",
      "type": "function"
    },
    {
      "inputs": [
        {
          "internalType": "uint256",
          "name": "maxTickets",
          "type": "uint256"
        },
        {
          "internalType": "uint256",
          "name": "ticketPrice",
          "type": "uint256"
        },
        {
          "internalType": "string",
          "name": "concertName",
          "type": "string"
        }
      ],
      "name": "createConcert",
      "outputs": [
        {
          "internalType": "address",
          "name": "",
          "type": "address"
        }
      ],
      "stateMutability": "nonpayable",
      "type": "function"
    },
    {
      "inputs": [],
      "name": "getAllConcerts",
      "outputs": [
        {
          "internalType": "address[]",
          "name": "",
          "type": "address[]"
        }
      ],
      "stateMutability": "view",
      "type": "function"
    }
  ],
  "bytecode": "0x6080604052348015600f57600080fd5b5061443f8061001f6000396000f3fe608060405234801561001057600080fd5b50600436106100415760003560e01c80630b1e813b14610046578063b75bbb1a14610076578063e4906456146100a6575b600080fd5b610060600480360381019061005b91906102e3565b6100c4565b60405161006d9190610351565b60405180910390f35b610090600480360381019061008b91906104b2565b610103565b60405161009d9190610351565b60405180910390f35b6100ae6101fe565b6040516100bb91906105df565b60405180910390f35b600081815481106100d457600080fd5b906000526020600020016000915054906101000a900473ffffffffffffffffffffffffffffffffffffffff1681565b600080848484336040516101169061028c565b610123949392919061068f565b604051809103906000f08015801561013f573d6000803e3d6000fd5b5090506000819080600181540180825580915050600190039060005260206000200160009091909190916101000a81548173ffffffffffffffffffffffffffffffffffffffff021916908373ffffffffffffffffffffffffffffffffffffffff1602179055508073ffffffffffffffffffffffffffffffffffffffff167fa4dfe22bd45ece2b2c93af32d7ae27faf2dab82b62115c5a061e3cbe13b2548a846040516101eb91906106db565b60405180910390a2809150509392505050565b6060600080548060200260200160405190810160405280929190818152602001828054801561028257602002820191906000526020600020905b8160009054906101000a900473ffffffffffffffffffffffffffffffffffffffff1673ffffffffffffffffffffffffffffffffffffffff1681526020019060010190808311610238575b5050505050905090565b613d0c806106fe83390190565b6000604051905090565b600080fd5b600080fd5b6000819050919050565b6102c0816102ad565b81146102cb57600080fd5b50565b6000813590506102dd816102b7565b92915050565b6000602082840312156102f9576102f86102a3565b5b6000610307848285016102ce565b91505092915050565b600073ffffffffffffffffffffffffffffffffffffffff82169050919050565b600061033b82610310565b9050919050565b61034b81610330565b82525050565b60006020820190506103666000830184610342565b92915050565b600080fd5b600080fd5b6000601f19601f8301169050919050565b7f4e487b7100000000000000000000000000000000000000000000000000000000600052604160045260246000fd5b6103bf82610376565b810181811067ffffffffffffffff821117156103de576103dd610387565b5b80604052505050565b60006103f1610299565b90506103fd82826103b6565b919050565b600067ffffffffffffffff82111561041d5761041c610387565b5b61042682610376565b9050602081019050919050565b82818337600083830152505050565b600061045561045084610402565b6103e7565b90508281526020810184848401111561047157610470610371565b5b61047c848285610433565b509392505050565b600082601f8301126104995761049861036c565b5b81356104a9848260208601610442565b91505092915050565b6000806000606084860312156104cb576104ca6102a3565b5b60006104d9868287016102ce565b93505060206104ea868287016102ce565b925050604084013567ffffffffffffffff81111561050b5761050a6102a8565b5b61051786828701610484565b9150509250925092565b600081519050919050565b600082825260208201905092915050565b6000819050602082019050919050565b61055681610330565b82525050565b6000610568838361054d565b60208301905092915050565b6000602082019050919050565b600061058c82610521565b610596818561052c565b93506105a18361053d565b8060005b838110156105d25781516105b9888261055c565b97506105c483610574565b9250506001810190506105a5565b5085935050505092915050565b600060208201905081810360008301526105f98184610581565b905092915050565b61060a816102ad565b82525050565b600081519050919050565b600082825260208201905092915050565b60005b8381101561064a57808201518184015260208101905061062f565b60008484015250505050565b600061066182610610565b61066b818561061b565b935061067b81856020860161062c565b61068481610376565b840191505092915050565b60006080820190506106a46000830187610601565b6106b16020830186610601565b81810360408301526106c38185610656565b90506106d26060830184610342565b95945050505050565b600060208201905081810360008301526106f58184610656565b90509291505056fe608060405234801561001057600080fd5b50604051613d0c380380613d0c83398181016040528101906100329190610417565b80826040518060400160405280600381526020017f54434b0000000000000000000000000000000000000000000000000000000000815250816000908161007991906106b1565b50806001908161008991906106b1565b505050600073ffffffffffffffffffffffffffffffffffffffff168173ffffffffffffffffffffffffffffffffffffffff16036100fe5760006040517f1e4fbdf70000000000000000000000000000000000000000000000000000000081526004016100f59190610792565b60405180910390fd5b61010d8161014860201b60201c565b5060006008819055508360098190555082600a819055506000600b60006101000a81548160ff021916908315150217905550505050506107ad565b6000600760009054906101000a900473ffffffffffffffffffffffffffffffffffffffff16905081600760006101000a81548173ffffffffffffffffffffffffffffffffffffffff021916908373ffffffffffffffffffffffffffffffffffffffff1602179055508173ffffffffffffffffffffffffffffffffffffffff168173ffffffffffffffffffffffffffffffffffffffff167f8be0079c531659141344cd1fd0a4f28419497f9722a3daafe3b4186f6b6457e060405160405180910390a35050565b6000604051905090565b600080fd5b600080fd5b6000819050919050565b61023581610222565b811461024057600080fd5b50565b6000815190506102528161022c565b92915050565b600080fd5b600080fd5b6000601f19601f8301169050919050565b7f4e487b7100000000000000000000000000000000000000000000000000000000600052604160045260246000fd5b6102ab82610262565b810181811067ffffffffffffffff821117156102ca576102c9610273565b5b80604052505050565b60006102dd61020e565b90506102e982826102a2565b919050565b600067ffffffffffffffff82111561030957610308610273565b5b61031282610262565b9050602081019050919050565b60005b8381101561033d578082015181840152602081019050610322565b60008484015250505050565b600061035c610357846102ee565b6102d3565b9050828152602081018484840111156103785761037761025d565b5b61038384828561031f565b509392505050565b600082601f8301126103a05761039f610258565b5b81516103b0848260208601610349565b91505092915050565b600073ffffffffffffffffffffffffffffffffffffffff82169050919050565b60006103e4826103b9565b9050919050565b6103f4816103d9565b81146103ff57600080fd5b50565b600081519050610411816103eb565b92915050565b6000806000806080858703121561043157610430610218565b5b600061043f87828801610243565b945050602061045087828801610243565b935050604085015167ffffffffffffffff8111156104715761047061021d565b5b61047d8782880161038b565b925050606061048e87828801610402565b91505092959194509250565b600081519050919050565b7f4e487b7100000000000000000000000000000000000000000000000000000000600052602260045260246000fd5b600060028204905060018216806104ec57607f821691505b6020821081036104ff576104fe6104a5565b5b50919050565b60008190508160005260206000209050919050565b60006020601f8301049050919050565b600082821b905092915050565b6000600883026105677fffffffffffffffffffffffffffffffffffffffffffffffffffffffffffffffff8261052a565b610571868361052a565b95508019841693508086168417925050509392505050565b6000819050919050565b60006105ae6105a96105a484610222565b610589565b610222565b9050919050565b6000819050919050565b6105c883610593565b6105dc6105d4826105b5565b848454610537565b825550505050565b600090565b6105f16105e4565b6105fc8184846105bf565b505050565b5b81811015610620576106156000826105e9565b600181019050610602565b5050565b601f8211156106655761063681610505565b61063f8461051a565b8101602085101561064e578190505b61066261065a8561051a565b830182610601565b50505b505050565b600082821c905092915050565b60006106886000198460080261066a565b1980831691505092915050565b60006106a18383610677565b9150826002028217905092915050565b6106ba8261049a565b67ffffffffffffffff8111156106d3576106d2610273565b5b6106dd82546104d4565b6106e8828285610624565b600060209050601f83116001811461071b5760008415610709578287015190505b6107138582610695565b86555061077b565b601f19841661072986610505565b60005b828110156107515784890151825560018201915060208501945060208101905061072c565b8683101561076e578489015161076a601f891682610677565b8355505b6001600288020188555050505b505050505050565b61078c816103d9565b82525050565b60006020820190506107a76000830184610783565b92915050565b613550806107bc6000396000f3fe6080604052600436106101815760003560e01c8063715018a6116100d1578063a22cb4651161008a578063c87b56dd11610064578063c87b56dd14610527578063e2142fde14610564578063e985e9c5146105a1578063f2fde38b146105de57610181565b8063a22cb465146104be578063b66a0e5d146104e7578063b88d4fde146104fe57610181565b8063715018a6146103cd578063729fb9fc146103e457806375fe0ed1146104005780638da5cb5b1461043d57806395d89b41146104685780639b8947031461049357610181565b8063380d831b1161013e5780634b25f9a5116101185780634b25f9a5146102ff5780636352211e1461032857806368428a1b1461036557806370a082311461039057610181565b8063380d831b146102a85780633ccfd60b146102bf57806342842e0e146102d657610181565b806301ffc9a71461018657806306fdde03146101c3578063081812fc146101ee578063095ea7b31461022b5780631209b1f61461025457806323b872dd1461027f575b600080fd5b34801561019257600080fd5b506101ad60048036038101906101a891906124a9565b610607565b6040516101ba91906124f1565b60405180910390f35b3480156101cf57600080fd5b506101d8610668565b6040516101e5919061259c565b60405180910390f35b3480156101fa57600080fd5b50610215600480360381019061021091906125f4565b6106fa565b6040516102229190612662565b60405180910390f35b34801561023757600080fd5b50610252600480360381019061024d91906126a9565b610716565b005b34801561026057600080fd5b5061026961072c565b60405161027691906126f8565b60405180910390f35b34801561028b57600080fd5b506102a660048036038101906102a19190612713565b610732565b005b3480156102b457600080fd5b506102bd610834565b005b3480156102cb57600080fd5b506102d4610859565b005b3480156102e257600080fd5b506102fd60048036038101906102f89190612713565b6108b1565b005b34801561030b57600080fd5b506103266004803603810190610321919061289b565b6108d1565b005b34801561033457600080fd5b5061034f600480360381019061034a91906125f4565b610b06565b60405161035c9190612662565b60405180910390f35b34801561037157600080fd5b5061037a610b18565b60405161038791906124f1565b60405180910390f35b34801561039c57600080fd5b506103b760048036038101906103b291906128e4565b610b2b565b6040516103c491906126f8565b60405180910390f35b3480156103d957600080fd5b506103e2610be5565b005b6103fe60048036038101906103f99190612911565b610bf9565b005b34801561040c57600080fd5b506104276004803603810190610422919061289b565b610f4a565b6040516104349190612662565b60405180910390f35b34801561044957600080fd5b50610452610f93565b60405161045f9190612662565b60405180910390f35b34801561047457600080fd5b5061047d610fbd565b60405161048a919061259c565b60405180910390f35b34801561049f57600080fd5b506104a861104f565b6040516104b591906126f8565b60405180910390f35b3480156104ca57600080fd5b506104e560048036038101906104e091906129c8565b611055565b005b3480156104f357600080fd5b506104fc61106b565b005b34801561050a57600080fd5b5061052560048036038101906105209190612aa9565b611090565b005b34801561053357600080fd5b5061054e600480360381019061054991906125f4565b6110b5565b60405161055b919061259c565b60405180910390f35b34801561057057600080fd5b5061058b600480360381019061058691906128e4565b6111c8565b60405161059891906124f1565b60405180910390f35b3480156105ad57600080fd5b506105c860048036038101906105c39190612b2c565b6111e8565b6040516105d591906124f1565b60405180910390f35b3480156105ea57600080fd5b50610605600480360381019061060091906128e4565b61127c565b005b6000634906490660e01b7bffffffffffffffffffffffffffffffffffffffffffffffffffffffff1916827bffffffffffffffffffffffffffffffffffffffffffffffffffffffff19161480610661575061066082611302565b5b9050919050565b60606000805461067790612b9b565b80601f01602080910402602001604051908101604052809291908181526020018280546106a390612b9b565b80156106f05780601f106106c5576101008083540402835291602001916106f0565b820191906000526020600020905b8154815290600101906020018083116106d357829003601f168201915b5050505050905090565b6000610705826113e4565b5061070f8261146c565b9050919050565b61072882826107236114a9565b6114b1565b5050565b600a5481565b600073ffffffffffffffffffffffffffffffffffffffff168273ffffffffffffffffffffffffffffffffffffffff16036107a45760006040517f64a0ae9200000000000000000000000000000000000000000000000000000000815260040161079b9190612662565b60405180910390fd5b60006107b883836107b36114a9565b6114c3565b90508373ffffffffffffffffffffffffffffffffffffffff168173ffffffffffffffffffffffffffffffffffffffff161461082e578382826040517f64283d7b00000000000000000000000000000000000000000000000000000000815260040161082593929190612bcc565b60405180910390fd5b50505050565b61083c61158d565b6000600b60006101000a81548160ff021916908315150217905550565b61086161158d565b610869610f93565b73ffffffffffffffffffffffffffffffffffffffff166108fc479081150290604051600060405180830381858888f193505050501580156108ae573d6000803e3d6000fd5b50565b6108cc83838360405180602001604052806000815250611090565b505050565b600f816040516108e19190612c3f565b908152602001604051809103902060009054906101000a900460ff161561093d576040517f08c379a000000000000000000000000000000000000000000000000000000000815260040161093490612ca2565b60405180910390fd5b601060003373ffffffffffffffffffffffffffffffffffffffff1673ffffffffffffffffffffffffffffffffffffffff16815260200190815260200160002060009054906101000a900460ff16156109ca576040517f08c379a00000000000000000000000000000000000000000000000000000000081526004016109c190612d34565b60405180910390fd5b33600d826040516109db9190612c3f565b908152602001604051809103902060006101000a81548173ffffffffffffffffffffffffffffffffffffffff021916908373ffffffffffffffffffffffffffffffffffffffff16021790555080600e60003373ffffffffffffffffffffffffffffffffffffffff1673ffffffffffffffffffffffffffffffffffffffff1681526020019081526020016000209081610a739190612f00565b506001600f82604051610a869190612c3f565b908152602001604051809103902060006101000a81548160ff0219169083151502179055506001601060003373ffffffffffffffffffffffffffffffffffffffff1673ffffffffffffffffffffffffffffffffffffffff16815260200190815260200160002060006101000a81548160ff02191690831515021790555050565b6000610b11826113e4565b9050919050565b600b60009054906101000a900460ff1681565b60008073ffffffffffffffffffffffffffffffffffffffff168273ffffffffffffffffffffffffffffffffffffffff1603610b9e5760006040517f89c62b64000000000000000000000000000000000000000000000000000000008152600401610b959190612662565b60405180910390fd5b600360008373ffffffffffffffffffffffffffffffffffffffff1673ffffffffffffffffffffffffffffffffffffffff168152602001908152602001600020549050919050565b610bed61158d565b610bf76000611614565b565b600b60009054906101000a900460ff16610c48576040517f08c379a0000000000000000000000000000000000000000000000000000000008152600401610c3f9061301e565b60405180910390fd5b60095460085410610c8e576040517f08c379a0000000000000000000000000000000000000000000000000000000008152600401610c859061308a565b60405180910390fd5b600f81604051610c9e9190612c3f565b908152602001604051809103902060009054906101000a900460ff16610cf9576040517f08c379a0000000000000000000000000000000000000000000000000000000008152600401610cf0906130f6565b60405180910390fd5b8273ffffffffffffffffffffffffffffffffffffffff16600d82604051610d209190612c3f565b908152602001604051809103902060009054906101000a900473ffffffffffffffffffffffffffffffffffffffff1673ffffffffffffffffffffffffffffffffffffffff1614610da5576040517f08c379a0000000000000000000000000000000000000000000000000000000008152600401610d9c90613188565b60405180910390fd5b600c60008473ffffffffffffffffffffffffffffffffffffffff1673ffffffffffffffffffffffffffffffffffffffff16815260200190815260200160002060009054906101000a900460ff1615610e32576040517f08c379a0000000000000000000000000000000000000000000000000000000008152600401610e29906131f4565b60405180910390fd5b600a54341015610e77576040517f08c379a0000000000000000000000000000000000000000000000000000000008152600401610e6e90613260565b60405180910390fd5b600a543414610ebb576040517f08c379a0000000000000000000000000000000000000000000000000000000008152600401610eb2906132cc565b60405180910390fd5b600160086000828254610ece919061331b565b92505081905550610ee1836008546116da565b610eed600854836116f8565b6001600c60008573ffffffffffffffffffffffffffffffffffffffff1673ffffffffffffffffffffffffffffffffffffffff16815260200190815260200160002060006101000a81548160ff021916908315150217905550505050565b600d818051602081018201805184825260208301602085012081835280955050505050506000915054906101000a900473ffffffffffffffffffffffffffffffffffffffff1681565b6000600760009054906101000a900473ffffffffffffffffffffffffffffffffffffffff16905090565b606060018054610fcc90612b9b565b80601f0160208091040260200160405190810160405280929190818152602001828054610ff890612b9b565b80156110455780601f1061101a57610100808354040283529160200191611045565b820191906000526020600020905b81548152906001019060200180831161102857829003601f168201915b5050505050905090565b60095481565b6110676110606114a9565b8383611754565b5050565b61107361158d565b6001600b60006101000a81548160ff021916908315150217905550565b61109b848484610732565b6110af6110a66114a9565b858585856118c3565b50505050565b60606110c0826113e4565b5060006006600084815260200190815260200160002080546110e190612b9b565b80601f016020809104026020016040519081016040528092919081815260200182805461110d90612b9b565b801561115a5780601f1061112f5761010080835404028352916020019161115a565b820191906000526020600020905b81548152906001019060200180831161113d57829003601f168201915b50505050509050600061116b611a74565b905060008151036111805781925050506111c3565b6000825111156111b557808260405160200161119d92919061334f565b604051602081830303815290604052925050506111c3565b6111be84611a8b565b925050505b919050565b600c6020528060005260406000206000915054906101000a900460ff1681565b6000600560008473ffffffffffffffffffffffffffffffffffffffff1673ffffffffffffffffffffffffffffffffffffffff16815260200190815260200160002060008373ffffffffffffffffffffffffffffffffffffffff1673ffffffffffffffffffffffffffffffffffffffff16815260200190815260200160002060009054906101000a900460ff16905092915050565b61128461158d565b600073ffffffffffffffffffffffffffffffffffffffff168173ffffffffffffffffffffffffffffffffffffffff16036112f65760006040517f1e4fbdf70000000000000000000000000000000000000000000000000000000081526004016112ed9190612662565b60405180910390fd5b6112ff81611614565b50565b60007f80ac58cd000000000000000000000000000000000000000000000000000000007bffffffffffffffffffffffffffffffffffffffffffffffffffffffff1916827bffffffffffffffffffffffffffffffffffffffffffffffffffffffff191614806113cd57507f5b5e139f000000000000000000000000000000000000000000000000000000007bffffffffffffffffffffffffffffffffffffffffffffffffffffffff1916827bffffffffffffffffffffffffffffffffffffffffffffffffffffffff1916145b806113dd57506113dc82611af4565b5b9050919050565b6000806113f083611b5e565b9050600073ffffffffffffffffffffffffffffffffffffffff168173ffffffffffffffffffffffffffffffffffffffff160361146357826040517f7e27328900000000000000000000000000000000000000000000000000000000815260040161145a91906126f8565b60405180910390fd5b80915050919050565b60006004600083815260200190815260200160002060009054906101000a900473ffffffffffffffffffffffffffffffffffffffff169050919050565b600033905090565b6114be8383836001611b9b565b505050565b6000806114cf84611b5e565b9050600073ffffffffffffffffffffffffffffffffffffffff168173ffffffffffffffffffffffffffffffffffffffff1614806115395750600073ffffffffffffffffffffffffffffffffffffffff168573ffffffffffffffffffffffffffffffffffffffff1614155b611578576040517f08c379a000000000000000000000000000000000000000000000000000000000815260040161156f906133bf565b60405180910390fd5b611583858585611d60565b9150509392505050565b6115956114a9565b73ffffffffffffffffffffffffffffffffffffffff166115b3610f93565b73ffffffffffffffffffffffffffffffffffffffff1614611612576115d66114a9565b6040517f118cdaa70000000000000000000000000000000000000000000000000000000081526004016116099190612662565b60405180910390fd5b565b6000600760009054906101000a900473ffffffffffffffffffffffffffffffffffffffff16905081600760006101000a81548173ffffffffffffffffffffffffffffffffffffffff021916908373ffffffffffffffffffffffffffffffffffffffff1602179055508173ffffffffffffffffffffffffffffffffffffffff168173ffffffffffffffffffffffffffffffffffffffff167f8be0079c531659141344cd1fd0a4f28419497f9722a3daafe3b4186f6b6457e060405160405180910390a35050565b6116f4828260405180602001604052806000815250611f7a565b5050565b806006600084815260200190815260200160002090816117189190612f00565b507ff8e1a15aba9398e019f0b49df1a4fde98ee17ae345cb5f6b5e2c27f5033e8ce78260405161174891906126f8565b60405180910390a15050565b600073ffffffffffffffffffffffffffffffffffffffff168273ffffffffffffffffffffffffffffffffffffffff16036117c557816040517f5b08ba180000000000000000000000000000000000000000000000000000000081526004016117bc9190612662565b60405180910390fd5b80600560008573ffffffffffffffffffffffffffffffffffffffff1673ffffffffffffffffffffffffffffffffffffffff16815260200190815260200160002060008473ffffffffffffffffffffffffffffffffffffffff1673ffffffffffffffffffffffffffffffffffffffff16815260200190815260200160002060006101000a81548160ff0219169083151502179055508173ffffffffffffffffffffffffffffffffffffffff168373ffffffffffffffffffffffffffffffffffffffff167f17307eab39ab6107e8899845ad3d59bd9653f200f220920489ca2b5937696c31836040516118b691906124f1565b60405180910390a3505050565b60008373ffffffffffffffffffffffffffffffffffffffff163b1115611a6d578273ffffffffffffffffffffffffffffffffffffffff1663150b7a02868685856040518563ffffffff1660e01b81526004016119229493929190613434565b6020604051808303816000875af192505050801561195e57506040513d601f19601f8201168201806040525081019061195b9190613495565b60015b6119e2573d806000811461198e576040519150601f19603f3d011682016040523d82523d6000602084013e611993565b606091505b5060008151036119da57836040517f64a0ae920000000000000000000000000000000000000000000000000000000081526004016119d19190612662565b60405180910390fd5b805181602001fd5b63150b7a0260e01b7bffffffffffffffffffffffffffffffffffffffffffffffffffffffff1916817bffffffffffffffffffffffffffffffffffffffffffffffffffffffff191614611a6b57836040517f64a0ae92000000000000000000000000000000000000000000000000000000008152600401611a629190612662565b60405180910390fd5b505b5050505050565b606060405180602001604052806000815250905090565b6060611a96826113e4565b506000611aa1611a74565b90506000815111611ac15760405180602001604052806000815250611aec565b80611acb84611f9e565b604051602001611adc92919061334f565b6040516020818303038152906040525b915050919050565b60007f01ffc9a7000000000000000000000000000000000000000000000000000000007bffffffffffffffffffffffffffffffffffffffffffffffffffffffff1916827bffffffffffffffffffffffffffffffffffffffffffffffffffffffff1916149050919050565b60006002600083815260200190815260200160002060009054906101000a900473ffffffffffffffffffffffffffffffffffffffff169050919050565b8080611bd45750600073ffffffffffffffffffffffffffffffffffffffff168273ffffffffffffffffffffffffffffffffffffffff1614155b15611d08576000611be4846113e4565b9050600073ffffffffffffffffffffffffffffffffffffffff168373ffffffffffffffffffffffffffffffffffffffff1614158015611c4f57508273ffffffffffffffffffffffffffffffffffffffff168173ffffffffffffffffffffffffffffffffffffffff1614155b8015611c625750611c6081846111e8565b155b15611ca457826040517fa9fbf51f000000000000000000000000000000000000000000000000000000008152600401611c9b9190612662565b60405180910390fd5b8115611d0657838573ffffffffffffffffffffffffffffffffffffffff168273ffffffffffffffffffffffffffffffffffffffff167f8c5be1e5ebec7d5bd14f71427d1e84f3dd0314c0f7b2291e5b200ac8c7c3b92560405160405180910390a45b505b836004600085815260200190815260200160002060006101000a81548173ffffffffffffffffffffffffffffffffffffffff021916908373ffffffffffffffffffffffffffffffffffffffff16021790555050505050565b600080611d6c84611b5e565b9050600073ffffffffffffffffffffffffffffffffffffffff168373ffffffffffffffffffffffffffffffffffffffff1614611dae57611dad81848661206c565b5b600073ffffffffffffffffffffffffffffffffffffffff168173ffffffffffffffffffffffffffffffffffffffff1614611e3f57611df0600085600080611b9b565b6001600360008373ffffffffffffffffffffffffffffffffffffffff1673ffffffffffffffffffffffffffffffffffffffff168152602001908152602001600020600082825403925050819055505b600073ffffffffffffffffffffffffffffffffffffffff168573ffffffffffffffffffffffffffffffffffffffff1614611ec2576001600360008773ffffffffffffffffffffffffffffffffffffffff1673ffffffffffffffffffffffffffffffffffffffff168152602001908152602001600020600082825401925050819055505b846002600086815260200190815260200160002060006101000a81548173ffffffffffffffffffffffffffffffffffffffff021916908373ffffffffffffffffffffffffffffffffffffffff160217905550838573ffffffffffffffffffffffffffffffffffffffff168273ffffffffffffffffffffffffffffffffffffffff167fddf252ad1be2c89b69c2b068fc378daa952ba7f163c4a11628f55a4df523b3ef60405160405180910390a4809150509392505050565b611f848383612130565b611f99611f8f6114a9565b60008585856118c3565b505050565b606060006001611fad84612229565b01905060008167ffffffffffffffff811115611fcc57611fcb612770565b5b6040519080825280601f01601f191660200182016040528015611ffe5781602001600182028036833780820191505090505b509050600082602001820190505b600115612061578080600190039150507f3031323334353637383961626364656600000000000000000000000000000000600a86061a8153600a8581612055576120546134c2565b5b0494506000850361200c575b819350505050919050565b61207783838361237c565b61212b57600073ffffffffffffffffffffffffffffffffffffffff168373ffffffffffffffffffffffffffffffffffffffff16036120ec57806040517f7e2732890000000000000000000000000000000000000000000000000000000081526004016120e391906126f8565b60405180910390fd5b81816040517f177e802f0000000000000000000000000000000000000000000000000000000081526004016121229291906134f1565b60405180910390fd5b505050565b600073ffffffffffffffffffffffffffffffffffffffff168273ffffffffffffffffffffffffffffffffffffffff16036121a25760006040517f64a0ae920000000000000000000000000000000000000000000000000000000081526004016121999190612662565b60405180910390fd5b60006121b0838360006114c3565b9050600073ffffffffffffffffffffffffffffffffffffffff168173ffffffffffffffffffffffffffffffffffffffff16146122245760006040517f73c6ac6e00000000000000000000000000000000000000000000000000000000815260040161221b9190612662565b60405180910390fd5b505050565b600080600090507a184f03e93ff9f4daa797ed6e38ed64bf6a1f0100000000000000008310612287577a184f03e93ff9f4daa797ed6e38ed64bf6a1f010000000000000000838161227d5761227c6134c2565b5b0492506040810190505b6d04ee2d6d415b85acef810000000083106122c4576d04ee2d6d415b85acef810000000083816122ba576122b96134c2565b5b0492506020810190505b662386f26fc1000083106122f357662386f26fc1000083816122e9576122e86134c2565b5b0492506010810190505b6305f5e100831061231c576305f5e1008381612312576123116134c2565b5b0492506008810190505b6127108310612341576127108381612337576123366134c2565b5b0492506004810190505b60648310612364576064838161235a576123596134c2565b5b0492506002810190505b600a8310612373576001810190505b80915050919050565b60008073ffffffffffffffffffffffffffffffffffffffff168373ffffffffffffffffffffffffffffffffffffffff161415801561243457508273ffffffffffffffffffffffffffffffffffffffff168473ffffffffffffffffffffffffffffffffffffffff1614806123f557506123f484846111e8565b5b8061243357508273ffffffffffffffffffffffffffffffffffffffff1661241b8361146c565b73ffffffffffffffffffffffffffffffffffffffff16145b5b90509392505050565b6000604051905090565b600080fd5b600080fd5b60007fffffffff0000000000000000000000000000000000000000000000000000000082169050919050565b61248681612451565b811461249157600080fd5b50565b6000813590506124a38161247d565b92915050565b6000602082840312156124bf576124be612447565b5b60006124cd84828501612494565b91505092915050565b60008115159050919050565b6124eb816124d6565b82525050565b600060208201905061250660008301846124e2565b92915050565b600081519050919050565b600082825260208201905092915050565b60005b8381101561254657808201518184015260208101905061252b565b60008484015250505050565b6000601f19601f8301169050919050565b600061256e8261250c565b6125788185612517565b9350612588818560208601612528565b61259181612552565b840191505092915050565b600060208201905081810360008301526125b68184612563565b905092915050565b6000819050919050565b6125d1816125be565b81146125dc57600080fd5b50565b6000813590506125ee816125c8565b92915050565b60006020828403121561260a57612609612447565b5b6000612618848285016125df565b91505092915050565b600073ffffffffffffffffffffffffffffffffffffffff82169050919050565b600061264c82612621565b9050919050565b61265c81612641565b82525050565b60006020820190506126776000830184612653565b92915050565b61268681612641565b811461269157600080fd5b50565b6000813590506126a38161267d565b92915050565b600080604083850312156126c0576126bf612447565b5b60006126ce85828601612694565b92505060206126df858286016125df565b9150509250929050565b6126f2816125be565b82525050565b600060208201905061270d60008301846126e9565b92915050565b60008060006060848603121561272c5761272b612447565b5b600061273a86828701612694565b935050602061274b86828701612694565b925050604061275c868287016125df565b9150509250925092565b600080fd5b600080fd5b7f4e487b7100000000000000000000000000000000000000000000000000000000600052604160045260246000fd5b6127a882612552565b810181811067ffffffffffffffff821117156127c7576127c6612770565b5b80604052505050565b60006127da61243d565b90506127e6828261279f565b919050565b600067ffffffffffffffff82111561280657612805612770565b5b61280f82612552565b9050602081019050919050565b82818337600083830152505050565b600061283e612839846127eb565b6127d0565b90508281526020810184848401111561285a5761285961276b565b5b61286584828561281c565b509392505050565b600082601f83011261288257612881612766565b5b813561289284826020860161282b565b91505092915050565b6000602082840312156128b1576128b0612447565b5b600082013567ffffffffffffffff8111156128cf576128ce61244c565b5b6128db8482850161286d565b91505092915050565b6000602082840312156128fa576128f9612447565b5b600061290884828501612694565b91505092915050565b60008060006060848603121561292a57612929612447565b5b600061293886828701612694565b935050602084013567ffffffffffffffff8111156129595761295861244c565b5b6129658682870161286d565b925050604084013567ffffffffffffffff8111156129865761298561244c565b5b6129928682870161286d565b9150509250925092565b6129a5816124d6565b81146129b057600080fd5b50565b6000813590506129c28161299c565b92915050565b600080604083850312156129df576129de612447565b5b60006129ed85828601612694565b92505060206129fe858286016129b3565b9150509250929050565b600067ffffffffffffffff821115612a2357612a22612770565b5b612a2c82612552565b9050602081019050919050565b6000612a4c612a4784612a08565b6127d0565b905082815260208101848484011115612a6857612a6761276b565b5b612a7384828561281c565b509392505050565b600082601f830112612a9057612a8f612766565b5b8135612aa0848260208601612a39565b91505092915050565b60008060008060808587031215612ac357612ac2612447565b5b6000612ad187828801612694565b9450506020612ae287828801612694565b9350506040612af3878288016125df565b925050606085013567ffffffffffffffff811115612b1457612b1361244c565b5b612b2087828801612a7b565b91505092959194509250565b60008060408385031215612b4357612b42612447565b5b6000612b5185828601612694565b9250506020612b6285828601612694565b9150509250929050565b7f4e487b7100000000000000000000000000000000000000000000000000000000600052602260045260246000fd5b60006002820490506001821680612bb357607f821691505b602082108103612bc657612bc5612b6c565b5b50919050565b6000606082019050612be16000830186612653565b612bee60208301856126e9565b612bfb6040830184612653565b949350505050565b600081905092915050565b6000612c198261250c565b612c238185612c03565b9350612c33818560208601612528565b80840191505092915050565b6000612c4b8284612c0e565b915081905092915050565b7f796f757420494420697320616c72656164792072656769737465726564000000600082015250565b6000612c8c601d83612517565b9150612c9782612c56565b602082019050919050565b60006020820190508181036000830152612cbb81612c7f565b9050919050565b7f796f7574206163636f756e7420697320616c726561647920726567697374657260008201527f6564000000000000000000000000000000000000000000000000000000000000602082015250565b6000612d1e602283612517565b9150612d2982612cc2565b604082019050919050565b60006020820190508181036000830152612d4d81612d11565b9050919050565b60008190508160005260206000209050919050565b60006020601f8301049050919050565b600082821b905092915050565b600060088302612db67fffffffffffffffffffffffffffffffffffffffffffffffffffffffffffffffff82612d79565b612dc08683612d79565b95508019841693508086168417925050509392505050565b6000819050919050565b6000612dfd612df8612df3846125be565b612dd8565b6125be565b9050919050565b6000819050919050565b612e1783612de2565b612e2b612e2382612e04565b848454612d86565b825550505050565b600090565b612e40612e33565b612e4b818484612e0e565b505050565b5b81811015612e6f57612e64600082612e38565b600181019050612e51565b5050565b601f821115612eb457612e8581612d54565b612e8e84612d69565b81016020851015612e9d578190505b612eb1612ea985612d69565b830182612e50565b50505b505050565b600082821c905092915050565b6000612ed760001984600802612eb9565b1980831691505092915050565b6000612ef08383612ec6565b9150826002028217905092915050565b612f098261250c565b67ffffffffffffffff811115612f2257612f21612770565b5b612f2c8254612b9b565b612f37828285612e73565b600060209050601f831160018114612f6a5760008415612f58578287015190505b612f628582612ee4565b865550612fca565b601f198416612f7886612d54565b60005b82811015612fa057848901518255600182019150602085019450602081019050612f7b565b86831015612fbd5784890151612fb9601f891682612ec6565b8355505b6001600288020188555050505b505050505050565b7f73616c65206861736e277420626567696e000000000000000000000000000000600082015250565b6000613008601183612517565b915061301382612fd2565b602082019050919050565b6000602082019050818103600083015261303781612ffb565b9050919050565b7f416c6c207469636b6574732068617665206265656e20736f6c64000000000000600082015250565b6000613074601a83612517565b915061307f8261303e565b602082019050919050565b600060208201905081810360008301526130a381613067565b9050919050565b7f54686973204944206973206e6f74207265676973746572656400000000000000600082015250565b60006130e0601983612517565b91506130eb826130aa565b602082019050919050565b6000602082019050818103600083015261310f816130d3565b9050919050565b7f54686973204944206973206e6f74207573696e67207468652062696e6465642060008201527f72656769737465726564206163636f756e740000000000000000000000000000602082015250565b6000613172603283612517565b915061317d82613116565b604082019050919050565b600060208201905081810360008301526131a181613165565b9050919050565b7f596f7520616c7265616479206f776e2061207469636b65740000000000000000600082015250565b60006131de601883612517565b91506131e9826131a8565b602082019050919050565b6000602082019050818103600083015261320d816131d1565b9050919050565b7f4e6f7420656e6f7567682045746865722073656e740000000000000000000000600082015250565b600061324a601583612517565b915061325582613214565b602082019050919050565b600060208201905081810360008301526132798161323d565b9050919050565b7f746f6f206d7563682045746865722073656e7400000000000000000000000000600082015250565b60006132b6601383612517565b91506132c182613280565b602082019050919050565b600060208201905081810360008301526132e5816132a9565b9050919050565b7f4e487b7100000000000000000000000000000000000000000000000000000000600052601160045260246000fd5b6000613326826125be565b9150613331836125be565b9250828201905080821115613349576133486132ec565b5b92915050565b600061335b8285612c0e565b91506133678284612c0e565b91508190509392505050565b7f43616e6e6f74206265207472616e736665726564000000000000000000000000600082015250565b60006133a9601483612517565b91506133b482613373565b602082019050919050565b600060208201905081810360008301526133d88161339c565b9050919050565b600081519050919050565b600082825260208201905092915050565b6000613406826133df565b61341081856133ea565b9350613420818560208601612528565b61342981612552565b840191505092915050565b60006080820190506134496000830187612653565b6134566020830186612653565b61346360408301856126e9565b818103606083015261347581846133fb565b905095945050505050565b60008151905061348f8161247d565b92915050565b6000602082840312156134ab576134aa612447565b5b60006134b984828501613480565b91505092915050565b7f4e487b7100000000000000000000000000000000000000000000000000000000600052601260045260246000fd5b60006040820190506135066000830185612653565b61351360208301846126e9565b939250505056fea26469706673582212207ee49a193495901a844f8c6aa2f99c7c1bf9cd1e41bbd6754eb8c6b23989f86764736f6c634300081b0033a26469706673582212203e3484a61259c5c3d1864a168ce39f6c9e6ec636932599a67e35e6a3bbbbaa3e64736f6c634300081b0033",
  "linkReferences": {},
  "deployedLinkReferences": {}
}