{
  "_format": "hh-sol-artifact-1",
  "contractName": "ConcertFactory",
  "sourceName": "contracts/ConcertFactory.sol",
  "abi": [
    {
      "anonymous": false,
      "inputs": [
        {
          "indexed": true,
          "internalType": "address",
          "name": "concertAddress",
          "type": "address"
        },
        {
          "indexed": false,
          "internalType": "string",
          "name": "name",
          "type": "string"
        },
        {
          "indexed": false,
          "internalType": "uint256",
          "name": "concertTime",
          "type": "uint256"
        }
      ],
      "name": "ConcertCreated",
      "type": "event"
    },
    {
      "inputs": [
        {
          "internalType": "uint256",
          "name": "",
          "type": "uint256"
        }
      ],
      "name": "allConcerts",
      "outputs": [
        {
          "internalType": "address",
          "name": "",
          "type": "address"
        }
      ],
      "stateMutability": "view",
      "type": "function"
    },
    {
      "inputs": [
        {
          "internalType": "uint256",
          "name": "maxTickets",
          "type": "uint256"
        },
        {
          "internalType": "uint256",
          "name": "ticketPrice",
          "type": "uint256"
        },
        {
          "internalType": "string",
          "name": "concertName",
          "type": "string"
        },
        {
          "internalType": "uint256",
          "name": "concertTime",
          "type": "uint256"
        }
      ],
      "name": "createConcert",
      "outputs": [
        {
          "internalType": "address",
          "name": "",
          "type": "address"
        }
      ],
      "stateMutability": "nonpayable",
      "type": "function"
    },
    {
      "inputs": [],
      "name": "getAllConcerts",
      "outputs": [
        {
          "internalType": "address[]",
          "name": "",
          "type": "address[]"
        }
      ],
      "stateMutability": "view",
      "type": "function"
    }
  ],
  "bytecode": "0x6080604052348015600f57600080fd5b506144dc8061001f6000396000f3fe608060405234801561001057600080fd5b50600436106100415760003560e01c80630b1e813b14610046578063d82f7cc614610076578063e4906456146100a6575b600080fd5b610060600480360381019061005b91906102e8565b6100c4565b60405161006d9190610356565b60405180910390f35b610090600480360381019061008b91906104b7565b610103565b60405161009d9190610356565b60405180910390f35b6100ae610203565b6040516100bb91906105f8565b60405180910390f35b600081815481106100d457600080fd5b906000526020600020016000915054906101000a900473ffffffffffffffffffffffffffffffffffffffff1681565b600080858585338660405161011790610291565b6101259594939291906106a8565b604051809103906000f080158015610141573d6000803e3d6000fd5b5090506000819080600181540180825580915050600190039060005260206000200160009091909190916101000a81548173ffffffffffffffffffffffffffffffffffffffff021916908373ffffffffffffffffffffffffffffffffffffffff1602179055508073ffffffffffffffffffffffffffffffffffffffff167fc57f64fe86fa36fc567ccc41bcbd0419c9b565c04ffc06421ebcbed50ef428d285856040516101ef929190610702565b60405180910390a280915050949350505050565b6060600080548060200260200160405190810160405280929190818152602001828054801561028757602002820191906000526020600020905b8160009054906101000a900473ffffffffffffffffffffffffffffffffffffffff1673ffffffffffffffffffffffffffffffffffffffff168152602001906001019080831161023d575b5050505050905090565b613d748061073383390190565b6000604051905090565b600080fd5b600080fd5b6000819050919050565b6102c5816102b2565b81146102d057600080fd5b50565b6000813590506102e2816102bc565b92915050565b6000602082840312156102fe576102fd6102a8565b5b600061030c848285016102d3565b91505092915050565b600073ffffffffffffffffffffffffffffffffffffffff82169050919050565b600061034082610315565b9050919050565b61035081610335565b82525050565b600060208201905061036b6000830184610347565b92915050565b600080fd5b600080fd5b6000601f19601f8301169050919050565b7f4e487b7100000000000000000000000000000000000000000000000000000000600052604160045260246000fd5b6103c48261037b565b810181811067ffffffffffffffff821117156103e3576103e261038c565b5b80604052505050565b60006103f661029e565b905061040282826103bb565b919050565b600067ffffffffffffffff8211156104225761042161038c565b5b61042b8261037b565b9050602081019050919050565b82818337600083830152505050565b600061045a61045584610407565b6103ec565b90508281526020810184848401111561047657610475610376565b5b610481848285610438565b509392505050565b600082601f83011261049e5761049d610371565b5b81356104ae848260208601610447565b91505092915050565b600080600080608085870312156104d1576104d06102a8565b5b60006104df878288016102d3565b94505060206104f0878288016102d3565b935050604085013567ffffffffffffffff811115610511576105106102ad565b5b61051d87828801610489565b925050606061052e878288016102d3565b91505092959194509250565b600081519050919050565b600082825260208201905092915050565b6000819050602082019050919050565b61056f81610335565b82525050565b60006105818383610566565b60208301905092915050565b6000602082019050919050565b60006105a58261053a565b6105af8185610545565b93506105ba83610556565b8060005b838110156105eb5781516105d28882610575565b97506105dd8361058d565b9250506001810190506105be565b5085935050505092915050565b60006020820190508181036000830152610612818461059a565b905092915050565b610623816102b2565b82525050565b600081519050919050565b600082825260208201905092915050565b60005b83811015610663578082015181840152602081019050610648565b60008484015250505050565b600061067a82610629565b6106848185610634565b9350610694818560208601610645565b61069d8161037b565b840191505092915050565b600060a0820190506106bd600083018861061a565b6106ca602083018761061a565b81810360408301526106dc818661066f565b90506106eb6060830185610347565b6106f8608083018461061a565b9695505050505050565b6000604082019050818103600083015261071c818561066f565b905061072b602083018461061a565b939250505056fe608060405234801561001057600080fd5b50604051613d74380380613d748339818101604052810190610032919061041f565b81836040518060400160405280600381526020017f54434b0000000000000000000000000000000000000000000000000000000000815250816000908161007991906106cd565b50806001908161008991906106cd565b505050600073ffffffffffffffffffffffffffffffffffffffff168173ffffffffffffffffffffffffffffffffffffffff16036100fe5760006040517f1e4fbdf70000000000000000000000000000000000000000000000000000000081526004016100f591906107ae565b60405180910390fd5b61010d8161015060201b60201c565b5060006008819055508460098190555083600a819055506000600c60006101000a81548160ff02191690831515021790555080600b8190555050505050506107c9565b6000600760009054906101000a900473ffffffffffffffffffffffffffffffffffffffff16905081600760006101000a81548173ffffffffffffffffffffffffffffffffffffffff021916908373ffffffffffffffffffffffffffffffffffffffff1602179055508173ffffffffffffffffffffffffffffffffffffffff168173ffffffffffffffffffffffffffffffffffffffff167f8be0079c531659141344cd1fd0a4f28419497f9722a3daafe3b4186f6b6457e060405160405180910390a35050565b6000604051905090565b600080fd5b600080fd5b6000819050919050565b61023d8161022a565b811461024857600080fd5b50565b60008151905061025a81610234565b92915050565b600080fd5b600080fd5b6000601f19601f8301169050919050565b7f4e487b7100000000000000000000000000000000000000000000000000000000600052604160045260246000fd5b6102b38261026a565b810181811067ffffffffffffffff821117156102d2576102d161027b565b5b80604052505050565b60006102e5610216565b90506102f182826102aa565b919050565b600067ffffffffffffffff8211156103115761031061027b565b5b61031a8261026a565b9050602081019050919050565b60005b8381101561034557808201518184015260208101905061032a565b60008484015250505050565b600061036461035f846102f6565b6102db565b9050828152602081018484840111156103805761037f610265565b5b61038b848285610327565b509392505050565b600082601f8301126103a8576103a7610260565b5b81516103b8848260208601610351565b91505092915050565b600073ffffffffffffffffffffffffffffffffffffffff82169050919050565b60006103ec826103c1565b9050919050565b6103fc816103e1565b811461040757600080fd5b50565b600081519050610419816103f3565b92915050565b600080600080600060a0868803121561043b5761043a610220565b5b60006104498882890161024b565b955050602061045a8882890161024b565b945050604086015167ffffffffffffffff81111561047b5761047a610225565b5b61048788828901610393565b93505060606104988882890161040a565b92505060806104a98882890161024b565b9150509295509295909350565b600081519050919050565b7f4e487b7100000000000000000000000000000000000000000000000000000000600052602260045260246000fd5b6000600282049050600182168061050857607f821691505b60208210810361051b5761051a6104c1565b5b50919050565b60008190508160005260206000209050919050565b60006020601f8301049050919050565b600082821b905092915050565b6000600883026105837fffffffffffffffffffffffffffffffffffffffffffffffffffffffffffffffff82610546565b61058d8683610546565b95508019841693508086168417925050509392505050565b6000819050919050565b60006105ca6105c56105c08461022a565b6105a5565b61022a565b9050919050565b6000819050919050565b6105e4836105af565b6105f86105f0826105d1565b848454610553565b825550505050565b600090565b61060d610600565b6106188184846105db565b505050565b5b8181101561063c57610631600082610605565b60018101905061061e565b5050565b601f8211156106815761065281610521565b61065b84610536565b8101602085101561066a578190505b61067e61067685610536565b83018261061d565b50505b505050565b600082821c905092915050565b60006106a460001984600802610686565b1980831691505092915050565b60006106bd8383610693565b9150826002028217905092915050565b6106d6826104b6565b67ffffffffffffffff8111156106ef576106ee61027b565b5b6106f982546104f0565b610704828285610640565b600060209050601f8311600181146107375760008415610725578287015190505b61072f85826106b1565b865550610797565b601f19841661074586610521565b60005b8281101561076d57848901518255600182019150602085019450602081019050610748565b8683101561078a5784890151610786601f891682610693565b8355505b6001600288020188555050505b505050505050565b6107a8816103e1565b82525050565b60006020820190506107c3600083018461079f565b92915050565b61359c806107d86000396000f3fe60806040526004361061019c5760003560e01c8063715018a6116100ec578063a22cb4651161008a578063c87b56dd11610064578063c87b56dd1461056d578063e2142fde146105aa578063e985e9c5146105e7578063f2fde38b146106245761019c565b8063a22cb46514610504578063b66a0e5d1461052d578063b88d4fde146105445761019c565b8063795244b1116100c6578063795244b1146104585780638da5cb5b1461048357806395d89b41146104ae5780639b894703146104d95761019c565b8063715018a6146103e8578063729fb9fc146103ff57806375fe0ed11461041b5761019c565b8063380d831b116101595780634b25f9a5116101335780634b25f9a51461031a5780636352211e1461034357806368428a1b1461038057806370a08231146103ab5761019c565b8063380d831b146102c35780633ccfd60b146102da57806342842e0e146102f15761019c565b806301ffc9a7146101a157806306fdde03146101de578063081812fc14610209578063095ea7b3146102465780631209b1f61461026f57806323b872dd1461029a575b600080fd5b3480156101ad57600080fd5b506101c860048036038101906101c391906124f5565b61064d565b6040516101d5919061253d565b60405180910390f35b3480156101ea57600080fd5b506101f36106ae565b60405161020091906125e8565b60405180910390f35b34801561021557600080fd5b50610230600480360381019061022b9190612640565b610740565b60405161023d91906126ae565b60405180910390f35b34801561025257600080fd5b5061026d600480360381019061026891906126f5565b61075c565b005b34801561027b57600080fd5b50610284610772565b6040516102919190612744565b60405180910390f35b3480156102a657600080fd5b506102c160048036038101906102bc919061275f565b610778565b005b3480156102cf57600080fd5b506102d861087a565b005b3480156102e657600080fd5b506102ef61089f565b005b3480156102fd57600080fd5b506103186004803603810190610313919061275f565b6108f7565b005b34801561032657600080fd5b50610341600480360381019061033c91906128e7565b610917565b005b34801561034f57600080fd5b5061036a60048036038101906103659190612640565b610b4c565b60405161037791906126ae565b60405180910390f35b34801561038c57600080fd5b50610395610b5e565b6040516103a2919061253d565b60405180910390f35b3480156103b757600080fd5b506103d260048036038101906103cd9190612930565b610b71565b6040516103df9190612744565b60405180910390f35b3480156103f457600080fd5b506103fd610c2b565b005b6104196004803603810190610414919061295d565b610c3f565b005b34801561042757600080fd5b50610442600480360381019061043d91906128e7565b610f90565b60405161044f91906126ae565b60405180910390f35b34801561046457600080fd5b5061046d610fd9565b60405161047a9190612744565b60405180910390f35b34801561048f57600080fd5b50610498610fdf565b6040516104a591906126ae565b60405180910390f35b3480156104ba57600080fd5b506104c3611009565b6040516104d091906125e8565b60405180910390f35b3480156104e557600080fd5b506104ee61109b565b6040516104fb9190612744565b60405180910390f35b34801561051057600080fd5b5061052b60048036038101906105269190612a14565b6110a1565b005b34801561053957600080fd5b506105426110b7565b005b34801561055057600080fd5b5061056b60048036038101906105669190612af5565b6110dc565b005b34801561057957600080fd5b50610594600480360381019061058f9190612640565b611101565b6040516105a191906125e8565b60405180910390f35b3480156105b657600080fd5b506105d160048036038101906105cc9190612930565b611214565b6040516105de919061253d565b60405180910390f35b3480156105f357600080fd5b5061060e60048036038101906106099190612b78565b611234565b60405161061b919061253d565b60405180910390f35b34801561063057600080fd5b5061064b60048036038101906106469190612930565b6112c8565b005b6000634906490660e01b7bffffffffffffffffffffffffffffffffffffffffffffffffffffffff1916827bffffffffffffffffffffffffffffffffffffffffffffffffffffffff191614806106a757506106a68261134e565b5b9050919050565b6060600080546106bd90612be7565b80601f01602080910402602001604051908101604052809291908181526020018280546106e990612be7565b80156107365780601f1061070b57610100808354040283529160200191610736565b820191906000526020600020905b81548152906001019060200180831161071957829003601f168201915b5050505050905090565b600061074b82611430565b50610755826114b8565b9050919050565b61076e82826107696114f5565b6114fd565b5050565b600a5481565b600073ffffffffffffffffffffffffffffffffffffffff168273ffffffffffffffffffffffffffffffffffffffff16036107ea5760006040517f64a0ae920000000000000000000000000000000000000000000000000000000081526004016107e191906126ae565b60405180910390fd5b60006107fe83836107f96114f5565b61150f565b90508373ffffffffffffffffffffffffffffffffffffffff168173ffffffffffffffffffffffffffffffffffffffff1614610874578382826040517f64283d7b00000000000000000000000000000000000000000000000000000000815260040161086b93929190612c18565b60405180910390fd5b50505050565b6108826115d9565b6000600c60006101000a81548160ff021916908315150217905550565b6108a76115d9565b6108af610fdf565b73ffffffffffffffffffffffffffffffffffffffff166108fc479081150290604051600060405180830381858888f193505050501580156108f4573d6000803e3d6000fd5b50565b610912838383604051806020016040528060008152506110dc565b505050565b6010816040516109279190612c8b565b908152602001604051809103902060009054906101000a900460ff1615610983576040517f08c379a000000000000000000000000000000000000000000000000000000000815260040161097a90612cee565b60405180910390fd5b601160003373ffffffffffffffffffffffffffffffffffffffff1673ffffffffffffffffffffffffffffffffffffffff16815260200190815260200160002060009054906101000a900460ff1615610a10576040517f08c379a0000000000000000000000000000000000000000000000000000000008152600401610a0790612d80565b60405180910390fd5b33600e82604051610a219190612c8b565b908152602001604051809103902060006101000a81548173ffffffffffffffffffffffffffffffffffffffff021916908373ffffffffffffffffffffffffffffffffffffffff16021790555080600f60003373ffffffffffffffffffffffffffffffffffffffff1673ffffffffffffffffffffffffffffffffffffffff1681526020019081526020016000209081610ab99190612f4c565b506001601082604051610acc9190612c8b565b908152602001604051809103902060006101000a81548160ff0219169083151502179055506001601160003373ffffffffffffffffffffffffffffffffffffffff1673ffffffffffffffffffffffffffffffffffffffff16815260200190815260200160002060006101000a81548160ff02191690831515021790555050565b6000610b5782611430565b9050919050565b600c60009054906101000a900460ff1681565b60008073ffffffffffffffffffffffffffffffffffffffff168273ffffffffffffffffffffffffffffffffffffffff1603610be45760006040517f89c62b64000000000000000000000000000000000000000000000000000000008152600401610bdb91906126ae565b60405180910390fd5b600360008373ffffffffffffffffffffffffffffffffffffffff1673ffffffffffffffffffffffffffffffffffffffff168152602001908152602001600020549050919050565b610c336115d9565b610c3d6000611660565b565b600c60009054906101000a900460ff16610c8e576040517f08c379a0000000000000000000000000000000000000000000000000000000008152600401610c859061306a565b60405180910390fd5b60095460085410610cd4576040517f08c379a0000000000000000000000000000000000000000000000000000000008152600401610ccb906130d6565b60405180910390fd5b601081604051610ce49190612c8b565b908152602001604051809103902060009054906101000a900460ff16610d3f576040517f08c379a0000000000000000000000000000000000000000000000000000000008152600401610d3690613142565b60405180910390fd5b8273ffffffffffffffffffffffffffffffffffffffff16600e82604051610d669190612c8b565b908152602001604051809103902060009054906101000a900473ffffffffffffffffffffffffffffffffffffffff1673ffffffffffffffffffffffffffffffffffffffff1614610deb576040517f08c379a0000000000000000000000000000000000000000000000000000000008152600401610de2906131d4565b60405180910390fd5b600d60008473ffffffffffffffffffffffffffffffffffffffff1673ffffffffffffffffffffffffffffffffffffffff16815260200190815260200160002060009054906101000a900460ff1615610e78576040517f08c379a0000000000000000000000000000000000000000000000000000000008152600401610e6f90613240565b60405180910390fd5b600a54341015610ebd576040517f08c379a0000000000000000000000000000000000000000000000000000000008152600401610eb4906132ac565b60405180910390fd5b600a543414610f01576040517f08c379a0000000000000000000000000000000000000000000000000000000008152600401610ef890613318565b60405180910390fd5b600160086000828254610f149190613367565b92505081905550610f2783600854611726565b610f3360085483611744565b6001600d60008573ffffffffffffffffffffffffffffffffffffffff1673ffffffffffffffffffffffffffffffffffffffff16815260200190815260200160002060006101000a81548160ff021916908315150217905550505050565b600e818051602081018201805184825260208301602085012081835280955050505050506000915054906101000a900473ffffffffffffffffffffffffffffffffffffffff1681565b600b5481565b6000600760009054906101000a900473ffffffffffffffffffffffffffffffffffffffff16905090565b60606001805461101890612be7565b80601f016020809104026020016040519081016040528092919081815260200182805461104490612be7565b80156110915780601f1061106657610100808354040283529160200191611091565b820191906000526020600020905b81548152906001019060200180831161107457829003601f168201915b5050505050905090565b60095481565b6110b36110ac6114f5565b83836117a0565b5050565b6110bf6115d9565b6001600c60006101000a81548160ff021916908315150217905550565b6110e7848484610778565b6110fb6110f26114f5565b8585858561190f565b50505050565b606061110c82611430565b50600060066000848152602001908152602001600020805461112d90612be7565b80601f016020809104026020016040519081016040528092919081815260200182805461115990612be7565b80156111a65780601f1061117b576101008083540402835291602001916111a6565b820191906000526020600020905b81548152906001019060200180831161118957829003601f168201915b5050505050905060006111b7611ac0565b905060008151036111cc57819250505061120f565b6000825111156112015780826040516020016111e992919061339b565b6040516020818303038152906040529250505061120f565b61120a84611ad7565b925050505b919050565b600d6020528060005260406000206000915054906101000a900460ff1681565b6000600560008473ffffffffffffffffffffffffffffffffffffffff1673ffffffffffffffffffffffffffffffffffffffff16815260200190815260200160002060008373ffffffffffffffffffffffffffffffffffffffff1673ffffffffffffffffffffffffffffffffffffffff16815260200190815260200160002060009054906101000a900460ff16905092915050565b6112d06115d9565b600073ffffffffffffffffffffffffffffffffffffffff168173ffffffffffffffffffffffffffffffffffffffff16036113425760006040517f1e4fbdf700000000000000000000000000000000000000000000000000000000815260040161133991906126ae565b60405180910390fd5b61134b81611660565b50565b60007f80ac58cd000000000000000000000000000000000000000000000000000000007bffffffffffffffffffffffffffffffffffffffffffffffffffffffff1916827bffffffffffffffffffffffffffffffffffffffffffffffffffffffff1916148061141957507f5b5e139f000000000000000000000000000000000000000000000000000000007bffffffffffffffffffffffffffffffffffffffffffffffffffffffff1916827bffffffffffffffffffffffffffffffffffffffffffffffffffffffff1916145b80611429575061142882611b40565b5b9050919050565b60008061143c83611baa565b9050600073ffffffffffffffffffffffffffffffffffffffff168173ffffffffffffffffffffffffffffffffffffffff16036114af57826040517f7e2732890000000000000000000000000000000000000000000000000000000081526004016114a69190612744565b60405180910390fd5b80915050919050565b60006004600083815260200190815260200160002060009054906101000a900473ffffffffffffffffffffffffffffffffffffffff169050919050565b600033905090565b61150a8383836001611be7565b505050565b60008061151b84611baa565b9050600073ffffffffffffffffffffffffffffffffffffffff168173ffffffffffffffffffffffffffffffffffffffff1614806115855750600073ffffffffffffffffffffffffffffffffffffffff168573ffffffffffffffffffffffffffffffffffffffff1614155b6115c4576040517f08c379a00000000000000000000000000000000000000000000000000000000081526004016115bb9061340b565b60405180910390fd5b6115cf858585611dac565b9150509392505050565b6115e16114f5565b73ffffffffffffffffffffffffffffffffffffffff166115ff610fdf565b73ffffffffffffffffffffffffffffffffffffffff161461165e576116226114f5565b6040517f118cdaa700000000000000000000000000000000000000000000000000000000815260040161165591906126ae565b60405180910390fd5b565b6000600760009054906101000a900473ffffffffffffffffffffffffffffffffffffffff16905081600760006101000a81548173ffffffffffffffffffffffffffffffffffffffff021916908373ffffffffffffffffffffffffffffffffffffffff1602179055508173ffffffffffffffffffffffffffffffffffffffff168173ffffffffffffffffffffffffffffffffffffffff167f8be0079c531659141344cd1fd0a4f28419497f9722a3daafe3b4186f6b6457e060405160405180910390a35050565b611740828260405180602001604052806000815250611fc6565b5050565b806006600084815260200190815260200160002090816117649190612f4c565b507ff8e1a15aba9398e019f0b49df1a4fde98ee17ae345cb5f6b5e2c27f5033e8ce7826040516117949190612744565b60405180910390a15050565b600073ffffffffffffffffffffffffffffffffffffffff168273ffffffffffffffffffffffffffffffffffffffff160361181157816040517f5b08ba1800000000000000000000000000000000000000000000000000000000815260040161180891906126ae565b60405180910390fd5b80600560008573ffffffffffffffffffffffffffffffffffffffff1673ffffffffffffffffffffffffffffffffffffffff16815260200190815260200160002060008473ffffffffffffffffffffffffffffffffffffffff1673ffffffffffffffffffffffffffffffffffffffff16815260200190815260200160002060006101000a81548160ff0219169083151502179055508173ffffffffffffffffffffffffffffffffffffffff168373ffffffffffffffffffffffffffffffffffffffff167f17307eab39ab6107e8899845ad3d59bd9653f200f220920489ca2b5937696c3183604051611902919061253d565b60405180910390a3505050565b60008373ffffffffffffffffffffffffffffffffffffffff163b1115611ab9578273ffffffffffffffffffffffffffffffffffffffff1663150b7a02868685856040518563ffffffff1660e01b815260040161196e9493929190613480565b6020604051808303816000875af19250505080156119aa57506040513d601f19601f820116820180604052508101906119a791906134e1565b60015b611a2e573d80600081146119da576040519150601f19603f3d011682016040523d82523d6000602084013e6119df565b606091505b506000815103611a2657836040517f64a0ae92000000000000000000000000000000000000000000000000000000008152600401611a1d91906126ae565b60405180910390fd5b805181602001fd5b63150b7a0260e01b7bffffffffffffffffffffffffffffffffffffffffffffffffffffffff1916817bffffffffffffffffffffffffffffffffffffffffffffffffffffffff191614611ab757836040517f64a0ae92000000000000000000000000000000000000000000000000000000008152600401611aae91906126ae565b60405180910390fd5b505b5050505050565b606060405180602001604052806000815250905090565b6060611ae282611430565b506000611aed611ac0565b90506000815111611b0d5760405180602001604052806000815250611b38565b80611b1784611fea565b604051602001611b2892919061339b565b6040516020818303038152906040525b915050919050565b60007f01ffc9a7000000000000000000000000000000000000000000000000000000007bffffffffffffffffffffffffffffffffffffffffffffffffffffffff1916827bffffffffffffffffffffffffffffffffffffffffffffffffffffffff1916149050919050565b60006002600083815260200190815260200160002060009054906101000a900473ffffffffffffffffffffffffffffffffffffffff169050919050565b8080611c205750600073ffffffffffffffffffffffffffffffffffffffff168273ffffffffffffffffffffffffffffffffffffffff1614155b15611d54576000611c3084611430565b9050600073ffffffffffffffffffffffffffffffffffffffff168373ffffffffffffffffffffffffffffffffffffffff1614158015611c9b57508273ffffffffffffffffffffffffffffffffffffffff168173ffffffffffffffffffffffffffffffffffffffff1614155b8015611cae5750611cac8184611234565b155b15611cf057826040517fa9fbf51f000000000000000000000000000000000000000000000000000000008152600401611ce791906126ae565b60405180910390fd5b8115611d5257838573ffffffffffffffffffffffffffffffffffffffff168273ffffffffffffffffffffffffffffffffffffffff167f8c5be1e5ebec7d5bd14f71427d1e84f3dd0314c0f7b2291e5b200ac8c7c3b92560405160405180910390a45b505b836004600085815260200190815260200160002060006101000a81548173ffffffffffffffffffffffffffffffffffffffff021916908373ffffffffffffffffffffffffffffffffffffffff16021790555050505050565b600080611db884611baa565b9050600073ffffffffffffffffffffffffffffffffffffffff168373ffffffffffffffffffffffffffffffffffffffff1614611dfa57611df98184866120b8565b5b600073ffffffffffffffffffffffffffffffffffffffff168173ffffffffffffffffffffffffffffffffffffffff1614611e8b57611e3c600085600080611be7565b6001600360008373ffffffffffffffffffffffffffffffffffffffff1673ffffffffffffffffffffffffffffffffffffffff168152602001908152602001600020600082825403925050819055505b600073ffffffffffffffffffffffffffffffffffffffff168573ffffffffffffffffffffffffffffffffffffffff1614611f0e576001600360008773ffffffffffffffffffffffffffffffffffffffff1673ffffffffffffffffffffffffffffffffffffffff168152602001908152602001600020600082825401925050819055505b846002600086815260200190815260200160002060006101000a81548173ffffffffffffffffffffffffffffffffffffffff021916908373ffffffffffffffffffffffffffffffffffffffff160217905550838573ffffffffffffffffffffffffffffffffffffffff168273ffffffffffffffffffffffffffffffffffffffff167fddf252ad1be2c89b69c2b068fc378daa952ba7f163c4a11628f55a4df523b3ef60405160405180910390a4809150509392505050565b611fd0838361217c565b611fe5611fdb6114f5565b600085858561190f565b505050565b606060006001611ff984612275565b01905060008167ffffffffffffffff811115612018576120176127bc565b5b6040519080825280601f01601f19166020018201604052801561204a5781602001600182028036833780820191505090505b509050600082602001820190505b6001156120ad578080600190039150507f3031323334353637383961626364656600000000000000000000000000000000600a86061a8153600a85816120a1576120a061350e565b5b04945060008503612058575b819350505050919050565b6120c38383836123c8565b61217757600073ffffffffffffffffffffffffffffffffffffffff168373ffffffffffffffffffffffffffffffffffffffff160361213857806040517f7e27328900000000000000000000000000000000000000000000000000000000815260040161212f9190612744565b60405180910390fd5b81816040517f177e802f00000000000000000000000000000000000000000000000000000000815260040161216e92919061353d565b60405180910390fd5b505050565b600073ffffffffffffffffffffffffffffffffffffffff168273ffffffffffffffffffffffffffffffffffffffff16036121ee5760006040517f64a0ae920000000000000000000000000000000000000000000000000000000081526004016121e591906126ae565b60405180910390fd5b60006121fc8383600061150f565b9050600073ffffffffffffffffffffffffffffffffffffffff168173ffffffffffffffffffffffffffffffffffffffff16146122705760006040517f73c6ac6e00000000000000000000000000000000000000000000000000000000815260040161226791906126ae565b60405180910390fd5b505050565b600080600090507a184f03e93ff9f4daa797ed6e38ed64bf6a1f01000000000000000083106122d3577a184f03e93ff9f4daa797ed6e38ed64bf6a1f01000000000000000083816122c9576122c861350e565b5b0492506040810190505b6d04ee2d6d415b85acef81000000008310612310576d04ee2d6d415b85acef810000000083816123065761230561350e565b5b0492506020810190505b662386f26fc10000831061233f57662386f26fc1000083816123355761233461350e565b5b0492506010810190505b6305f5e1008310612368576305f5e100838161235e5761235d61350e565b5b0492506008810190505b612710831061238d5761271083816123835761238261350e565b5b0492506004810190505b606483106123b057606483816123a6576123a561350e565b5b0492506002810190505b600a83106123bf576001810190505b80915050919050565b60008073ffffffffffffffffffffffffffffffffffffffff168373ffffffffffffffffffffffffffffffffffffffff161415801561248057508273ffffffffffffffffffffffffffffffffffffffff168473ffffffffffffffffffffffffffffffffffffffff16148061244157506124408484611234565b5b8061247f57508273ffffffffffffffffffffffffffffffffffffffff16612467836114b8565b73ffffffffffffffffffffffffffffffffffffffff16145b5b90509392505050565b6000604051905090565b600080fd5b600080fd5b60007fffffffff0000000000000000000000000000000000000000000000000000000082169050919050565b6124d28161249d565b81146124dd57600080fd5b50565b6000813590506124ef816124c9565b92915050565b60006020828403121561250b5761250a612493565b5b6000612519848285016124e0565b91505092915050565b60008115159050919050565b61253781612522565b82525050565b6000602082019050612552600083018461252e565b92915050565b600081519050919050565b600082825260208201905092915050565b60005b83811015612592578082015181840152602081019050612577565b60008484015250505050565b6000601f19601f8301169050919050565b60006125ba82612558565b6125c48185612563565b93506125d4818560208601612574565b6125dd8161259e565b840191505092915050565b6000602082019050818103600083015261260281846125af565b905092915050565b6000819050919050565b61261d8161260a565b811461262857600080fd5b50565b60008135905061263a81612614565b92915050565b60006020828403121561265657612655612493565b5b60006126648482850161262b565b91505092915050565b600073ffffffffffffffffffffffffffffffffffffffff82169050919050565b60006126988261266d565b9050919050565b6126a88161268d565b82525050565b60006020820190506126c3600083018461269f565b92915050565b6126d28161268d565b81146126dd57600080fd5b50565b6000813590506126ef816126c9565b92915050565b6000806040838503121561270c5761270b612493565b5b600061271a858286016126e0565b925050602061272b8582860161262b565b9150509250929050565b61273e8161260a565b82525050565b60006020820190506127596000830184612735565b92915050565b60008060006060848603121561277857612777612493565b5b6000612786868287016126e0565b9350506020612797868287016126e0565b92505060406127a88682870161262b565b9150509250925092565b600080fd5b600080fd5b7f4e487b7100000000000000000000000000000000000000000000000000000000600052604160045260246000fd5b6127f48261259e565b810181811067ffffffffffffffff82111715612813576128126127bc565b5b80604052505050565b6000612826612489565b905061283282826127eb565b919050565b600067ffffffffffffffff821115612852576128516127bc565b5b61285b8261259e565b9050602081019050919050565b82818337600083830152505050565b600061288a61288584612837565b61281c565b9050828152602081018484840111156128a6576128a56127b7565b5b6128b1848285612868565b509392505050565b600082601f8301126128ce576128cd6127b2565b5b81356128de848260208601612877565b91505092915050565b6000602082840312156128fd576128fc612493565b5b600082013567ffffffffffffffff81111561291b5761291a612498565b5b612927848285016128b9565b91505092915050565b60006020828403121561294657612945612493565b5b6000612954848285016126e0565b91505092915050565b60008060006060848603121561297657612975612493565b5b6000612984868287016126e0565b935050602084013567ffffffffffffffff8111156129a5576129a4612498565b5b6129b1868287016128b9565b925050604084013567ffffffffffffffff8111156129d2576129d1612498565b5b6129de868287016128b9565b9150509250925092565b6129f181612522565b81146129fc57600080fd5b50565b600081359050612a0e816129e8565b92915050565b60008060408385031215612a2b57612a2a612493565b5b6000612a39858286016126e0565b9250506020612a4a858286016129ff565b9150509250929050565b600067ffffffffffffffff821115612a6f57612a6e6127bc565b5b612a788261259e565b9050602081019050919050565b6000612a98612a9384612a54565b61281c565b905082815260208101848484011115612ab457612ab36127b7565b5b612abf848285612868565b509392505050565b600082601f830112612adc57612adb6127b2565b5b8135612aec848260208601612a85565b91505092915050565b60008060008060808587031215612b0f57612b0e612493565b5b6000612b1d878288016126e0565b9450506020612b2e878288016126e0565b9350506040612b3f8782880161262b565b925050606085013567ffffffffffffffff811115612b6057612b5f612498565b5b612b6c87828801612ac7565b91505092959194509250565b60008060408385031215612b8f57612b8e612493565b5b6000612b9d858286016126e0565b9250506020612bae858286016126e0565b9150509250929050565b7f4e487b7100000000000000000000000000000000000000000000000000000000600052602260045260246000fd5b60006002820490506001821680612bff57607f821691505b602082108103612c1257612c11612bb8565b5b50919050565b6000606082019050612c2d600083018661269f565b612c3a6020830185612735565b612c47604083018461269f565b949350505050565b600081905092915050565b6000612c6582612558565b612c6f8185612c4f565b9350612c7f818560208601612574565b80840191505092915050565b6000612c978284612c5a565b915081905092915050565b7f796f757420494420697320616c72656164792072656769737465726564000000600082015250565b6000612cd8601d83612563565b9150612ce382612ca2565b602082019050919050565b60006020820190508181036000830152612d0781612ccb565b9050919050565b7f796f7574206163636f756e7420697320616c726561647920726567697374657260008201527f6564000000000000000000000000000000000000000000000000000000000000602082015250565b6000612d6a602283612563565b9150612d7582612d0e565b604082019050919050565b60006020820190508181036000830152612d9981612d5d565b9050919050565b60008190508160005260206000209050919050565b60006020601f8301049050919050565b600082821b905092915050565b600060088302612e027fffffffffffffffffffffffffffffffffffffffffffffffffffffffffffffffff82612dc5565b612e0c8683612dc5565b95508019841693508086168417925050509392505050565b6000819050919050565b6000612e49612e44612e3f8461260a565b612e24565b61260a565b9050919050565b6000819050919050565b612e6383612e2e565b612e77612e6f82612e50565b848454612dd2565b825550505050565b600090565b612e8c612e7f565b612e97818484612e5a565b505050565b5b81811015612ebb57612eb0600082612e84565b600181019050612e9d565b5050565b601f821115612f0057612ed181612da0565b612eda84612db5565b81016020851015612ee9578190505b612efd612ef585612db5565b830182612e9c565b50505b505050565b600082821c905092915050565b6000612f2360001984600802612f05565b1980831691505092915050565b6000612f3c8383612f12565b9150826002028217905092915050565b612f5582612558565b67ffffffffffffffff811115612f6e57612f6d6127bc565b5b612f788254612be7565b612f83828285612ebf565b600060209050601f831160018114612fb65760008415612fa4578287015190505b612fae8582612f30565b865550613016565b601f198416612fc486612da0565b60005b82811015612fec57848901518255600182019150602085019450602081019050612fc7565b868310156130095784890151613005601f891682612f12565b8355505b6001600288020188555050505b505050505050565b7f73616c65206861736e277420626567696e000000000000000000000000000000600082015250565b6000613054601183612563565b915061305f8261301e565b602082019050919050565b6000602082019050818103600083015261308381613047565b9050919050565b7f416c6c207469636b6574732068617665206265656e20736f6c64000000000000600082015250565b60006130c0601a83612563565b91506130cb8261308a565b602082019050919050565b600060208201905081810360008301526130ef816130b3565b9050919050565b7f54686973204944206973206e6f74207265676973746572656400000000000000600082015250565b600061312c601983612563565b9150613137826130f6565b602082019050919050565b6000602082019050818103600083015261315b8161311f565b9050919050565b7f54686973204944206973206e6f74207573696e67207468652062696e6465642060008201527f72656769737465726564206163636f756e740000000000000000000000000000602082015250565b60006131be603283612563565b91506131c982613162565b604082019050919050565b600060208201905081810360008301526131ed816131b1565b9050919050565b7f596f7520616c7265616479206f776e2061207469636b65740000000000000000600082015250565b600061322a601883612563565b9150613235826131f4565b602082019050919050565b600060208201905081810360008301526132598161321d565b9050919050565b7f4e6f7420656e6f7567682045746865722073656e740000000000000000000000600082015250565b6000613296601583612563565b91506132a182613260565b602082019050919050565b600060208201905081810360008301526132c581613289565b9050919050565b7f746f6f206d7563682045746865722073656e7400000000000000000000000000600082015250565b6000613302601383612563565b915061330d826132cc565b602082019050919050565b60006020820190508181036000830152613331816132f5565b9050919050565b7f4e487b7100000000000000000000000000000000000000000000000000000000600052601160045260246000fd5b60006133728261260a565b915061337d8361260a565b925082820190508082111561339557613394613338565b5b92915050565b60006133a78285612c5a565b91506133b38284612c5a565b91508190509392505050565b7f43616e6e6f74206265207472616e736665726564000000000000000000000000600082015250565b60006133f5601483612563565b9150613400826133bf565b602082019050919050565b60006020820190508181036000830152613424816133e8565b9050919050565b600081519050919050565b600082825260208201905092915050565b60006134528261342b565b61345c8185613436565b935061346c818560208601612574565b6134758161259e565b840191505092915050565b6000608082019050613495600083018761269f565b6134a2602083018661269f565b6134af6040830185612735565b81810360608301526134c18184613447565b905095945050505050565b6000815190506134db816124c9565b92915050565b6000602082840312156134f7576134f6612493565b5b6000613505848285016134cc565b91505092915050565b7f4e487b7100000000000000000000000000000000000000000000000000000000600052601260045260246000fd5b6000604082019050613552600083018561269f565b61355f6020830184612735565b939250505056fea2646970667358221220cded5c620a4b909d2312d8a5ae84f29024a071c3cbcab338b11c9d8fc7806d0e64736f6c634300081b0033a26469706673582212200f8255f2402a4540fe808ccf204131602ed5831b38f84ed63bbef6aa7abc0f1b64736f6c634300081b0033",
  "linkReferences": {},
  "deployedLinkReferences": {}
}