{
  "_format": "hh-sol-artifact-1",
  "contractName": "ConcertFactory",
  "sourceName": "contracts/ConcertFactory.sol",
  "abi": [
    {
      "anonymous": false,
      "inputs": [
        {
          "indexed": true,
          "internalType": "address",
          "name": "concertAddress",
          "type": "address"
        },
        {
          "indexed": false,
          "internalType": "string",
          "name": "name",
          "type": "string"
        },
        {
          "indexed": false,
          "internalType": "uint256",
          "name": "concertTime",
          "type": "uint256"
        },
        {
          "indexed": false,
          "internalType": "string",
          "name": "baseCID",
          "type": "string"
        }
      ],
      "name": "ConcertCreated",
      "type": "event"
    },
    {
      "inputs": [
        {
          "internalType": "uint256",
          "name": "",
          "type": "uint256"
        }
      ],
      "name": "allConcerts",
      "outputs": [
        {
          "internalType": "address",
          "name": "",
          "type": "address"
        }
      ],
      "stateMutability": "view",
      "type": "function"
    },
    {
      "inputs": [
        {
          "internalType": "uint256",
          "name": "maxTickets",
          "type": "uint256"
        },
        {
          "internalType": "uint256",
          "name": "ticketPrice",
          "type": "uint256"
        },
        {
          "internalType": "string",
          "name": "concertName",
          "type": "string"
        },
        {
          "internalType": "uint256",
          "name": "concertTime",
          "type": "uint256"
        },
        {
          "internalType": "string",
          "name": "baseCID",
          "type": "string"
        }
      ],
      "name": "createConcert",
      "outputs": [
        {
          "internalType": "address",
          "name": "",
          "type": "address"
        }
      ],
      "stateMutability": "nonpayable",
      "type": "function"
    },
    {
      "inputs": [],
      "name": "getAllConcerts",
      "outputs": [
        {
          "internalType": "address[]",
          "name": "",
          "type": "address[]"
        }
      ],
      "stateMutability": "view",
      "type": "function"
    }
  ],
  "bytecode": "0x6080604052348015600f57600080fd5b5061491f8061001f6000396000f3fe608060405234801561001057600080fd5b50600436106100415760003560e01c80630b1e813b146100465780635fe0d52c14610076578063e4906456146100a6575b600080fd5b610060600480360381019061005b91906102ed565b6100c4565b60405161006d919061035b565b60405180910390f35b610090600480360381019061008b91906104bc565b610103565b60405161009d919061035b565b60405180910390f35b6100ae610208565b6040516100bb919061062d565b60405180910390f35b600081815481106100d457600080fd5b906000526020600020016000915054906101000a900473ffffffffffffffffffffffffffffffffffffffff1681565b60008086868633878760405161011890610296565b610127969594939291906106dd565b604051809103906000f080158015610143573d6000803e3d6000fd5b5090506000819080600181540180825580915050600190039060005260206000200160009091909190916101000a81548173ffffffffffffffffffffffffffffffffffffffff021916908373ffffffffffffffffffffffffffffffffffffffff1602179055508073ffffffffffffffffffffffffffffffffffffffff167ff34801d6077c0c7356524f2c786a214ac8618a7700cd6183f6e4a106525052698686866040516101f39392919061074c565b60405180910390a28091505095945050505050565b6060600080548060200260200160405190810160405280929190818152602001828054801561028c57602002820191906000526020600020905b8160009054906101000a900473ffffffffffffffffffffffffffffffffffffffff1673ffffffffffffffffffffffffffffffffffffffff1681526020019060010190808311610242575b5050505050905090565b6141588061079283390190565b6000604051905090565b600080fd5b600080fd5b6000819050919050565b6102ca816102b7565b81146102d557600080fd5b50565b6000813590506102e7816102c1565b92915050565b600060208284031215610303576103026102ad565b5b6000610311848285016102d8565b91505092915050565b600073ffffffffffffffffffffffffffffffffffffffff82169050919050565b60006103458261031a565b9050919050565b6103558161033a565b82525050565b6000602082019050610370600083018461034c565b92915050565b600080fd5b600080fd5b6000601f19601f8301169050919050565b7f4e487b7100000000000000000000000000000000000000000000000000000000600052604160045260246000fd5b6103c982610380565b810181811067ffffffffffffffff821117156103e8576103e7610391565b5b80604052505050565b60006103fb6102a3565b905061040782826103c0565b919050565b600067ffffffffffffffff82111561042757610426610391565b5b61043082610380565b9050602081019050919050565b82818337600083830152505050565b600061045f61045a8461040c565b6103f1565b90508281526020810184848401111561047b5761047a61037b565b5b61048684828561043d565b509392505050565b600082601f8301126104a3576104a2610376565b5b81356104b384826020860161044c565b91505092915050565b600080600080600060a086880312156104d8576104d76102ad565b5b60006104e6888289016102d8565b95505060206104f7888289016102d8565b945050604086013567ffffffffffffffff811115610518576105176102b2565b5b6105248882890161048e565b9350506060610535888289016102d8565b925050608086013567ffffffffffffffff811115610556576105556102b2565b5b6105628882890161048e565b9150509295509295909350565b600081519050919050565b600082825260208201905092915050565b6000819050602082019050919050565b6105a48161033a565b82525050565b60006105b6838361059b565b60208301905092915050565b6000602082019050919050565b60006105da8261056f565b6105e4818561057a565b93506105ef8361058b565b8060005b8381101561062057815161060788826105aa565b9750610612836105c2565b9250506001810190506105f3565b5085935050505092915050565b6000602082019050818103600083015261064781846105cf565b905092915050565b610658816102b7565b82525050565b600081519050919050565b600082825260208201905092915050565b60005b8381101561069857808201518184015260208101905061067d565b60008484015250505050565b60006106af8261065e565b6106b98185610669565b93506106c981856020860161067a565b6106d281610380565b840191505092915050565b600060c0820190506106f2600083018961064f565b6106ff602083018861064f565b818103604083015261071181876106a4565b9050610720606083018661034c565b61072d608083018561064f565b81810360a083015261073f81846106a4565b9050979650505050505050565b6000606082019050818103600083015261076681866106a4565b9050610775602083018561064f565b818103604083015261078781846106a4565b905094935050505056fe608060405234801561001057600080fd5b5060405161415838038061415883398181016040528101906100329190610430565b82846040518060400160405280600381526020017f54434b00000000000000000000000000000000000000000000000000000000008152508160009081610079919061070c565b508060019081610089919061070c565b505050600073ffffffffffffffffffffffffffffffffffffffff168173ffffffffffffffffffffffffffffffffffffffff16036100fe5760006040517f1e4fbdf70000000000000000000000000000000000000000000000000000000081526004016100f591906107ed565b60405180910390fd5b61010d8161016160201b60201c565b5060006008819055508560098190555084600a819055506000600d60006101000a81548160ff02191690831515021790555081600b8190555080600c9081610155919061070c565b50505050505050610808565b6000600760009054906101000a900473ffffffffffffffffffffffffffffffffffffffff16905081600760006101000a81548173ffffffffffffffffffffffffffffffffffffffff021916908373ffffffffffffffffffffffffffffffffffffffff1602179055508173ffffffffffffffffffffffffffffffffffffffff168173ffffffffffffffffffffffffffffffffffffffff167f8be0079c531659141344cd1fd0a4f28419497f9722a3daafe3b4186f6b6457e060405160405180910390a35050565b6000604051905090565b600080fd5b600080fd5b6000819050919050565b61024e8161023b565b811461025957600080fd5b50565b60008151905061026b81610245565b92915050565b600080fd5b600080fd5b6000601f19601f8301169050919050565b7f4e487b7100000000000000000000000000000000000000000000000000000000600052604160045260246000fd5b6102c48261027b565b810181811067ffffffffffffffff821117156102e3576102e261028c565b5b80604052505050565b60006102f6610227565b905061030282826102bb565b919050565b600067ffffffffffffffff8211156103225761032161028c565b5b61032b8261027b565b9050602081019050919050565b60005b8381101561035657808201518184015260208101905061033b565b60008484015250505050565b600061037561037084610307565b6102ec565b90508281526020810184848401111561039157610390610276565b5b61039c848285610338565b509392505050565b600082601f8301126103b9576103b8610271565b5b81516103c9848260208601610362565b91505092915050565b600073ffffffffffffffffffffffffffffffffffffffff82169050919050565b60006103fd826103d2565b9050919050565b61040d816103f2565b811461041857600080fd5b50565b60008151905061042a81610404565b92915050565b60008060008060008060c0878903121561044d5761044c610231565b5b600061045b89828a0161025c565b965050602061046c89828a0161025c565b955050604087015167ffffffffffffffff81111561048d5761048c610236565b5b61049989828a016103a4565b94505060606104aa89828a0161041b565b93505060806104bb89828a0161025c565b92505060a087015167ffffffffffffffff8111156104dc576104db610236565b5b6104e889828a016103a4565b9150509295509295509295565b600081519050919050565b7f4e487b7100000000000000000000000000000000000000000000000000000000600052602260045260246000fd5b6000600282049050600182168061054757607f821691505b60208210810361055a57610559610500565b5b50919050565b60008190508160005260206000209050919050565b60006020601f8301049050919050565b600082821b905092915050565b6000600883026105c27fffffffffffffffffffffffffffffffffffffffffffffffffffffffffffffffff82610585565b6105cc8683610585565b95508019841693508086168417925050509392505050565b6000819050919050565b60006106096106046105ff8461023b565b6105e4565b61023b565b9050919050565b6000819050919050565b610623836105ee565b61063761062f82610610565b848454610592565b825550505050565b600090565b61064c61063f565b61065781848461061a565b505050565b5b8181101561067b57610670600082610644565b60018101905061065d565b5050565b601f8211156106c05761069181610560565b61069a84610575565b810160208510156106a9578190505b6106bd6106b585610575565b83018261065c565b50505b505050565b600082821c905092915050565b60006106e3600019846008026106c5565b1980831691505092915050565b60006106fc83836106d2565b9150826002028217905092915050565b610715826104f5565b67ffffffffffffffff81111561072e5761072d61028c565b5b610738825461052f565b61074382828561067f565b600060209050601f8311600181146107765760008415610764578287015190505b61076e85826106f0565b8655506107d6565b601f19841661078486610560565b60005b828110156107ac57848901518255600182019150602085019450602081019050610787565b868310156107c957848901516107c5601f8916826106d2565b8355505b6001600288020188555050505b505050505050565b6107e7816103f2565b82525050565b600060208201905061080260008301846107de565b92915050565b613941806108176000396000f3fe6080604052600436106101cd5760003560e01c8063729fb9fc116100f7578063a22cb46511610095578063e2142fde11610064578063e2142fde14610643578063e985e9c514610680578063f2fde38b146106bd578063f9f0164a146106e6576101cd565b8063a22cb4651461059d578063b66a0e5d146105c6578063b88d4fde146105dd578063c87b56dd14610606576101cd565b80638462151c116100d15780638462151c146104df5780638da5cb5b1461051c57806395d89b41146105475780639b89470314610572576101cd565b8063729fb9fc1461045b57806375fe0ed114610477578063795244b1146104b4576101cd565b8063380d831b1161016f5780636352211e1161013e5780636352211e1461039f57806368428a1b146103dc57806370a0823114610407578063715018a614610444576101cd565b8063380d831b1461031f5780633ccfd60b1461033657806342842e0e1461034d5780634b25f9a514610376576101cd565b8063095ea7b3116101ab578063095ea7b3146102775780631209b1f6146102a057806323b872dd146102cb57806325fdfaa2146102f4576101cd565b806301ffc9a7146101d257806306fdde031461020f578063081812fc1461023a575b600080fd5b3480156101de57600080fd5b506101f960048036038101906101f49190612743565b610711565b604051610206919061278b565b60405180910390f35b34801561021b57600080fd5b50610224610772565b6040516102319190612836565b60405180910390f35b34801561024657600080fd5b50610261600480360381019061025c919061288e565b610804565b60405161026e91906128fc565b60405180910390f35b34801561028357600080fd5b5061029e60048036038101906102999190612943565b610820565b005b3480156102ac57600080fd5b506102b5610836565b6040516102c29190612992565b60405180910390f35b3480156102d757600080fd5b506102f260048036038101906102ed91906129ad565b61083c565b005b34801561030057600080fd5b5061030961093e565b6040516103169190612836565b60405180910390f35b34801561032b57600080fd5b506103346109cc565b005b34801561034257600080fd5b5061034b6109f1565b005b34801561035957600080fd5b50610374600480360381019061036f91906129ad565b610a49565b005b34801561038257600080fd5b5061039d60048036038101906103989190612b35565b610a69565b005b3480156103ab57600080fd5b506103c660048036038101906103c1919061288e565b610c9e565b6040516103d391906128fc565b60405180910390f35b3480156103e857600080fd5b506103f1610cb0565b6040516103fe919061278b565b60405180910390f35b34801561041357600080fd5b5061042e60048036038101906104299190612b7e565b610cc3565b60405161043b9190612992565b60405180910390f35b34801561045057600080fd5b50610459610d7d565b005b61047560048036038101906104709190612bab565b610d91565b005b34801561048357600080fd5b5061049e60048036038101906104999190612b35565b6110e2565b6040516104ab91906128fc565b60405180910390f35b3480156104c057600080fd5b506104c961112b565b6040516104d69190612992565b60405180910390f35b3480156104eb57600080fd5b5061050660048036038101906105019190612b7e565b611131565b6040516105139190612cf4565b60405180910390f35b34801561052857600080fd5b50610531611227565b60405161053e91906128fc565b60405180910390f35b34801561055357600080fd5b5061055c611251565b6040516105699190612836565b60405180910390f35b34801561057e57600080fd5b506105876112e3565b6040516105949190612992565b60405180910390f35b3480156105a957600080fd5b506105c460048036038101906105bf9190612d42565b6112e9565b005b3480156105d257600080fd5b506105db6112ff565b005b3480156105e957600080fd5b5061060460048036038101906105ff9190612e23565b611324565b005b34801561061257600080fd5b5061062d6004803603810190610628919061288e565b611349565b60405161063a9190612836565b60405180910390f35b34801561064f57600080fd5b5061066a60048036038101906106659190612b7e565b61145c565b604051610677919061278b565b60405180910390f35b34801561068c57600080fd5b506106a760048036038101906106a29190612ea6565b61147c565b6040516106b4919061278b565b60405180910390f35b3480156106c957600080fd5b506106e460048036038101906106df9190612b7e565b611510565b005b3480156106f257600080fd5b506106fb611596565b6040516107089190612992565b60405180910390f35b6000634906490660e01b7bffffffffffffffffffffffffffffffffffffffffffffffffffffffff1916827bffffffffffffffffffffffffffffffffffffffffffffffffffffffff1916148061076b575061076a8261159c565b5b9050919050565b60606000805461078190612f15565b80601f01602080910402602001604051908101604052809291908181526020018280546107ad90612f15565b80156107fa5780601f106107cf576101008083540402835291602001916107fa565b820191906000526020600020905b8154815290600101906020018083116107dd57829003601f168201915b5050505050905090565b600061080f8261167e565b5061081982611706565b9050919050565b610832828261082d611743565b61174b565b5050565b600a5481565b600073ffffffffffffffffffffffffffffffffffffffff168273ffffffffffffffffffffffffffffffffffffffff16036108ae5760006040517f64a0ae920000000000000000000000000000000000000000000000000000000081526004016108a591906128fc565b60405180910390fd5b60006108c283836108bd611743565b61175d565b90508373ffffffffffffffffffffffffffffffffffffffff168173ffffffffffffffffffffffffffffffffffffffff1614610938578382826040517f64283d7b00000000000000000000000000000000000000000000000000000000815260040161092f93929190612f46565b60405180910390fd5b50505050565b600c805461094b90612f15565b80601f016020809104026020016040519081016040528092919081815260200182805461097790612f15565b80156109c45780601f10610999576101008083540402835291602001916109c4565b820191906000526020600020905b8154815290600101906020018083116109a757829003601f168201915b505050505081565b6109d4611827565b6000600d60006101000a81548160ff021916908315150217905550565b6109f9611827565b610a01611227565b73ffffffffffffffffffffffffffffffffffffffff166108fc479081150290604051600060405180830381858888f19350505050158015610a46573d6000803e3d6000fd5b50565b610a6483838360405180602001604052806000815250611324565b505050565b601181604051610a799190612fb9565b908152602001604051809103902060009054906101000a900460ff1615610ad5576040517f08c379a0000000000000000000000000000000000000000000000000000000008152600401610acc9061301c565b60405180910390fd5b601260003373ffffffffffffffffffffffffffffffffffffffff1673ffffffffffffffffffffffffffffffffffffffff16815260200190815260200160002060009054906101000a900460ff1615610b62576040517f08c379a0000000000000000000000000000000000000000000000000000000008152600401610b59906130ae565b60405180910390fd5b33600f82604051610b739190612fb9565b908152602001604051809103902060006101000a81548173ffffffffffffffffffffffffffffffffffffffff021916908373ffffffffffffffffffffffffffffffffffffffff16021790555080601060003373ffffffffffffffffffffffffffffffffffffffff1673ffffffffffffffffffffffffffffffffffffffff1681526020019081526020016000209081610c0b919061327a565b506001601182604051610c1e9190612fb9565b908152602001604051809103902060006101000a81548160ff0219169083151502179055506001601260003373ffffffffffffffffffffffffffffffffffffffff1673ffffffffffffffffffffffffffffffffffffffff16815260200190815260200160002060006101000a81548160ff02191690831515021790555050565b6000610ca98261167e565b9050919050565b600d60009054906101000a900460ff1681565b60008073ffffffffffffffffffffffffffffffffffffffff168273ffffffffffffffffffffffffffffffffffffffff1603610d365760006040517f89c62b64000000000000000000000000000000000000000000000000000000008152600401610d2d91906128fc565b60405180910390fd5b600360008373ffffffffffffffffffffffffffffffffffffffff1673ffffffffffffffffffffffffffffffffffffffff168152602001908152602001600020549050919050565b610d85611827565b610d8f60006118ae565b565b600d60009054906101000a900460ff16610de0576040517f08c379a0000000000000000000000000000000000000000000000000000000008152600401610dd790613398565b60405180910390fd5b60095460085410610e26576040517f08c379a0000000000000000000000000000000000000000000000000000000008152600401610e1d90613404565b60405180910390fd5b601181604051610e369190612fb9565b908152602001604051809103902060009054906101000a900460ff16610e91576040517f08c379a0000000000000000000000000000000000000000000000000000000008152600401610e8890613470565b60405180910390fd5b8273ffffffffffffffffffffffffffffffffffffffff16600f82604051610eb89190612fb9565b908152602001604051809103902060009054906101000a900473ffffffffffffffffffffffffffffffffffffffff1673ffffffffffffffffffffffffffffffffffffffff1614610f3d576040517f08c379a0000000000000000000000000000000000000000000000000000000008152600401610f3490613502565b60405180910390fd5b600e60008473ffffffffffffffffffffffffffffffffffffffff1673ffffffffffffffffffffffffffffffffffffffff16815260200190815260200160002060009054906101000a900460ff1615610fca576040517f08c379a0000000000000000000000000000000000000000000000000000000008152600401610fc19061356e565b60405180910390fd5b600a5434101561100f576040517f08c379a0000000000000000000000000000000000000000000000000000000008152600401611006906135da565b60405180910390fd5b600a543414611053576040517f08c379a000000000000000000000000000000000000000000000000000000000815260040161104a90613646565b60405180910390fd5b6001600860008282546110669190613695565b9250508190555061107983600854611974565b61108560085483611992565b6001600e60008573ffffffffffffffffffffffffffffffffffffffff1673ffffffffffffffffffffffffffffffffffffffff16815260200190815260200160002060006101000a81548160ff021916908315150217905550505050565b600f818051602081018201805184825260208301602085012081835280955050505050506000915054906101000a900473ffffffffffffffffffffffffffffffffffffffff1681565b600b5481565b6060600061113e83610cc3565b905060008167ffffffffffffffff81111561115c5761115b612a0a565b5b60405190808252806020026020018201604052801561118a5781602001602082028036833780820191505090505b509050600080600190505b600854811161121b578573ffffffffffffffffffffffffffffffffffffffff166111be826119ee565b73ffffffffffffffffffffffffffffffffffffffff160361120857808383815181106111ed576111ec6136c9565b5b6020026020010181815250508180611204906136f8565b9250505b8080611213906136f8565b915050611195565b50819350505050919050565b6000600760009054906101000a900473ffffffffffffffffffffffffffffffffffffffff16905090565b60606001805461126090612f15565b80601f016020809104026020016040519081016040528092919081815260200182805461128c90612f15565b80156112d95780601f106112ae576101008083540402835291602001916112d9565b820191906000526020600020905b8154815290600101906020018083116112bc57829003601f168201915b5050505050905090565b60095481565b6112fb6112f4611743565b8383611a2b565b5050565b611307611827565b6001600d60006101000a81548160ff021916908315150217905550565b61132f84848461083c565b61134361133a611743565b85858585611b9a565b50505050565b60606113548261167e565b50600060066000848152602001908152602001600020805461137590612f15565b80601f01602080910402602001604051908101604052809291908181526020018280546113a190612f15565b80156113ee5780601f106113c3576101008083540402835291602001916113ee565b820191906000526020600020905b8154815290600101906020018083116113d157829003601f168201915b5050505050905060006113ff611d4b565b90506000815103611414578192505050611457565b600082511115611449578082604051602001611431929190613740565b60405160208183030381529060405292505050611457565b61145284611d62565b925050505b919050565b600e6020528060005260406000206000915054906101000a900460ff1681565b6000600560008473ffffffffffffffffffffffffffffffffffffffff1673ffffffffffffffffffffffffffffffffffffffff16815260200190815260200160002060008373ffffffffffffffffffffffffffffffffffffffff1673ffffffffffffffffffffffffffffffffffffffff16815260200190815260200160002060009054906101000a900460ff16905092915050565b611518611827565b600073ffffffffffffffffffffffffffffffffffffffff168173ffffffffffffffffffffffffffffffffffffffff160361158a5760006040517f1e4fbdf700000000000000000000000000000000000000000000000000000000815260040161158191906128fc565b60405180910390fd5b611593816118ae565b50565b60085481565b60007f80ac58cd000000000000000000000000000000000000000000000000000000007bffffffffffffffffffffffffffffffffffffffffffffffffffffffff1916827bffffffffffffffffffffffffffffffffffffffffffffffffffffffff1916148061166757507f5b5e139f000000000000000000000000000000000000000000000000000000007bffffffffffffffffffffffffffffffffffffffffffffffffffffffff1916827bffffffffffffffffffffffffffffffffffffffffffffffffffffffff1916145b80611677575061167682611dcb565b5b9050919050565b60008061168a836119ee565b9050600073ffffffffffffffffffffffffffffffffffffffff168173ffffffffffffffffffffffffffffffffffffffff16036116fd57826040517f7e2732890000000000000000000000000000000000000000000000000000000081526004016116f49190612992565b60405180910390fd5b80915050919050565b60006004600083815260200190815260200160002060009054906101000a900473ffffffffffffffffffffffffffffffffffffffff169050919050565b600033905090565b6117588383836001611e35565b505050565b600080611769846119ee565b9050600073ffffffffffffffffffffffffffffffffffffffff168173ffffffffffffffffffffffffffffffffffffffff1614806117d35750600073ffffffffffffffffffffffffffffffffffffffff168573ffffffffffffffffffffffffffffffffffffffff1614155b611812576040517f08c379a0000000000000000000000000000000000000000000000000000000008152600401611809906137b0565b60405180910390fd5b61181d858585611ffa565b9150509392505050565b61182f611743565b73ffffffffffffffffffffffffffffffffffffffff1661184d611227565b73ffffffffffffffffffffffffffffffffffffffff16146118ac57611870611743565b6040517f118cdaa70000000000000000000000000000000000000000000000000000000081526004016118a391906128fc565b60405180910390fd5b565b6000600760009054906101000a900473ffffffffffffffffffffffffffffffffffffffff16905081600760006101000a81548173ffffffffffffffffffffffffffffffffffffffff021916908373ffffffffffffffffffffffffffffffffffffffff1602179055508173ffffffffffffffffffffffffffffffffffffffff168173ffffffffffffffffffffffffffffffffffffffff167f8be0079c531659141344cd1fd0a4f28419497f9722a3daafe3b4186f6b6457e060405160405180910390a35050565b61198e828260405180602001604052806000815250612214565b5050565b806006600084815260200190815260200160002090816119b2919061327a565b507ff8e1a15aba9398e019f0b49df1a4fde98ee17ae345cb5f6b5e2c27f5033e8ce7826040516119e29190612992565b60405180910390a15050565b60006002600083815260200190815260200160002060009054906101000a900473ffffffffffffffffffffffffffffffffffffffff169050919050565b600073ffffffffffffffffffffffffffffffffffffffff168273ffffffffffffffffffffffffffffffffffffffff1603611a9c57816040517f5b08ba18000000000000000000000000000000000000000000000000000000008152600401611a9391906128fc565b60405180910390fd5b80600560008573ffffffffffffffffffffffffffffffffffffffff1673ffffffffffffffffffffffffffffffffffffffff16815260200190815260200160002060008473ffffffffffffffffffffffffffffffffffffffff1673ffffffffffffffffffffffffffffffffffffffff16815260200190815260200160002060006101000a81548160ff0219169083151502179055508173ffffffffffffffffffffffffffffffffffffffff168373ffffffffffffffffffffffffffffffffffffffff167f17307eab39ab6107e8899845ad3d59bd9653f200f220920489ca2b5937696c3183604051611b8d919061278b565b60405180910390a3505050565b60008373ffffffffffffffffffffffffffffffffffffffff163b1115611d44578273ffffffffffffffffffffffffffffffffffffffff1663150b7a02868685856040518563ffffffff1660e01b8152600401611bf99493929190613825565b6020604051808303816000875af1925050508015611c3557506040513d601f19601f82011682018060405250810190611c329190613886565b60015b611cb9573d8060008114611c65576040519150601f19603f3d011682016040523d82523d6000602084013e611c6a565b606091505b506000815103611cb157836040517f64a0ae92000000000000000000000000000000000000000000000000000000008152600401611ca891906128fc565b60405180910390fd5b805160208201fd5b63150b7a0260e01b7bffffffffffffffffffffffffffffffffffffffffffffffffffffffff1916817bffffffffffffffffffffffffffffffffffffffffffffffffffffffff191614611d4257836040517f64a0ae92000000000000000000000000000000000000000000000000000000008152600401611d3991906128fc565b60405180910390fd5b505b5050505050565b606060405180602001604052806000815250905090565b6060611d6d8261167e565b506000611d78611d4b565b90506000815111611d985760405180602001604052806000815250611dc3565b80611da284612238565b604051602001611db3929190613740565b6040516020818303038152906040525b915050919050565b60007f01ffc9a7000000000000000000000000000000000000000000000000000000007bffffffffffffffffffffffffffffffffffffffffffffffffffffffff1916827bffffffffffffffffffffffffffffffffffffffffffffffffffffffff1916149050919050565b8080611e6e5750600073ffffffffffffffffffffffffffffffffffffffff168273ffffffffffffffffffffffffffffffffffffffff1614155b15611fa2576000611e7e8461167e565b9050600073ffffffffffffffffffffffffffffffffffffffff168373ffffffffffffffffffffffffffffffffffffffff1614158015611ee957508273ffffffffffffffffffffffffffffffffffffffff168173ffffffffffffffffffffffffffffffffffffffff1614155b8015611efc5750611efa818461147c565b155b15611f3e57826040517fa9fbf51f000000000000000000000000000000000000000000000000000000008152600401611f3591906128fc565b60405180910390fd5b8115611fa057838573ffffffffffffffffffffffffffffffffffffffff168273ffffffffffffffffffffffffffffffffffffffff167f8c5be1e5ebec7d5bd14f71427d1e84f3dd0314c0f7b2291e5b200ac8c7c3b92560405160405180910390a45b505b836004600085815260200190815260200160002060006101000a81548173ffffffffffffffffffffffffffffffffffffffff021916908373ffffffffffffffffffffffffffffffffffffffff16021790555050505050565b600080612006846119ee565b9050600073ffffffffffffffffffffffffffffffffffffffff168373ffffffffffffffffffffffffffffffffffffffff161461204857612047818486612306565b5b600073ffffffffffffffffffffffffffffffffffffffff168173ffffffffffffffffffffffffffffffffffffffff16146120d95761208a600085600080611e35565b6001600360008373ffffffffffffffffffffffffffffffffffffffff1673ffffffffffffffffffffffffffffffffffffffff168152602001908152602001600020600082825403925050819055505b600073ffffffffffffffffffffffffffffffffffffffff168573ffffffffffffffffffffffffffffffffffffffff161461215c576001600360008773ffffffffffffffffffffffffffffffffffffffff1673ffffffffffffffffffffffffffffffffffffffff168152602001908152602001600020600082825401925050819055505b846002600086815260200190815260200160002060006101000a81548173ffffffffffffffffffffffffffffffffffffffff021916908373ffffffffffffffffffffffffffffffffffffffff160217905550838573ffffffffffffffffffffffffffffffffffffffff168273ffffffffffffffffffffffffffffffffffffffff167fddf252ad1be2c89b69c2b068fc378daa952ba7f163c4a11628f55a4df523b3ef60405160405180910390a4809150509392505050565b61221e83836123ca565b612233612229611743565b6000858585611b9a565b505050565b606060006001612247846124c3565b01905060008167ffffffffffffffff81111561226657612265612a0a565b5b6040519080825280601f01601f1916602001820160405280156122985781602001600182028036833780820191505090505b509050600082602083010190505b6001156122fb578080600190039150507f3031323334353637383961626364656600000000000000000000000000000000600a86061a8153600a85816122ef576122ee6138b3565b5b049450600085036122a6575b819350505050919050565b612311838383612616565b6123c557600073ffffffffffffffffffffffffffffffffffffffff168373ffffffffffffffffffffffffffffffffffffffff160361238657806040517f7e27328900000000000000000000000000000000000000000000000000000000815260040161237d9190612992565b60405180910390fd5b81816040517f177e802f0000000000000000000000000000000000000000000000000000000081526004016123bc9291906138e2565b60405180910390fd5b505050565b600073ffffffffffffffffffffffffffffffffffffffff168273ffffffffffffffffffffffffffffffffffffffff160361243c5760006040517f64a0ae9200000000000000000000000000000000000000000000000000000000815260040161243391906128fc565b60405180910390fd5b600061244a8383600061175d565b9050600073ffffffffffffffffffffffffffffffffffffffff168173ffffffffffffffffffffffffffffffffffffffff16146124be5760006040517f73c6ac6e0000000000000000000000000000000000000000000000000000000081526004016124b591906128fc565b60405180910390fd5b505050565b600080600090507a184f03e93ff9f4daa797ed6e38ed64bf6a1f0100000000000000008310612521577a184f03e93ff9f4daa797ed6e38ed64bf6a1f0100000000000000008381612517576125166138b3565b5b0492506040810190505b6d04ee2d6d415b85acef8100000000831061255e576d04ee2d6d415b85acef81000000008381612554576125536138b3565b5b0492506020810190505b662386f26fc10000831061258d57662386f26fc100008381612583576125826138b3565b5b0492506010810190505b6305f5e10083106125b6576305f5e10083816125ac576125ab6138b3565b5b0492506008810190505b61271083106125db5761271083816125d1576125d06138b3565b5b0492506004810190505b606483106125fe57606483816125f4576125f36138b3565b5b0492506002810190505b600a831061260d576001810190505b80915050919050565b60008073ffffffffffffffffffffffffffffffffffffffff168373ffffffffffffffffffffffffffffffffffffffff16141580156126ce57508273ffffffffffffffffffffffffffffffffffffffff168473ffffffffffffffffffffffffffffffffffffffff16148061268f575061268e848461147c565b5b806126cd57508273ffffffffffffffffffffffffffffffffffffffff166126b583611706565b73ffffffffffffffffffffffffffffffffffffffff16145b5b90509392505050565b6000604051905090565b600080fd5b600080fd5b60007fffffffff0000000000000000000000000000000000000000000000000000000082169050919050565b612720816126eb565b811461272b57600080fd5b50565b60008135905061273d81612717565b92915050565b600060208284031215612759576127586126e1565b5b60006127678482850161272e565b91505092915050565b60008115159050919050565b61278581612770565b82525050565b60006020820190506127a0600083018461277c565b92915050565b600081519050919050565b600082825260208201905092915050565b60005b838110156127e05780820151818401526020810190506127c5565b60008484015250505050565b6000601f19601f8301169050919050565b6000612808826127a6565b61281281856127b1565b93506128228185602086016127c2565b61282b816127ec565b840191505092915050565b6000602082019050818103600083015261285081846127fd565b905092915050565b6000819050919050565b61286b81612858565b811461287657600080fd5b50565b60008135905061288881612862565b92915050565b6000602082840312156128a4576128a36126e1565b5b60006128b284828501612879565b91505092915050565b600073ffffffffffffffffffffffffffffffffffffffff82169050919050565b60006128e6826128bb565b9050919050565b6128f6816128db565b82525050565b600060208201905061291160008301846128ed565b92915050565b612920816128db565b811461292b57600080fd5b50565b60008135905061293d81612917565b92915050565b6000806040838503121561295a576129596126e1565b5b60006129688582860161292e565b925050602061297985828601612879565b9150509250929050565b61298c81612858565b82525050565b60006020820190506129a76000830184612983565b92915050565b6000806000606084860312156129c6576129c56126e1565b5b60006129d48682870161292e565b93505060206129e58682870161292e565b92505060406129f686828701612879565b9150509250925092565b600080fd5b600080fd5b7f4e487b7100000000000000000000000000000000000000000000000000000000600052604160045260246000fd5b612a42826127ec565b810181811067ffffffffffffffff82111715612a6157612a60612a0a565b5b80604052505050565b6000612a746126d7565b9050612a808282612a39565b919050565b600067ffffffffffffffff821115612aa057612a9f612a0a565b5b612aa9826127ec565b9050602081019050919050565b82818337600083830152505050565b6000612ad8612ad384612a85565b612a6a565b905082815260208101848484011115612af457612af3612a05565b5b612aff848285612ab6565b509392505050565b600082601f830112612b1c57612b1b612a00565b5b8135612b2c848260208601612ac5565b91505092915050565b600060208284031215612b4b57612b4a6126e1565b5b600082013567ffffffffffffffff811115612b6957612b686126e6565b5b612b7584828501612b07565b91505092915050565b600060208284031215612b9457612b936126e1565b5b6000612ba28482850161292e565b91505092915050565b600080600060608486031215612bc457612bc36126e1565b5b6000612bd28682870161292e565b935050602084013567ffffffffffffffff811115612bf357612bf26126e6565b5b612bff86828701612b07565b925050604084013567ffffffffffffffff811115612c2057612c1f6126e6565b5b612c2c86828701612b07565b9150509250925092565b600081519050919050565b600082825260208201905092915050565b6000819050602082019050919050565b612c6b81612858565b82525050565b6000612c7d8383612c62565b60208301905092915050565b6000602082019050919050565b6000612ca182612c36565b612cab8185612c41565b9350612cb683612c52565b8060005b83811015612ce7578151612cce8882612c71565b9750612cd983612c89565b925050600181019050612cba565b5085935050505092915050565b60006020820190508181036000830152612d0e8184612c96565b905092915050565b612d1f81612770565b8114612d2a57600080fd5b50565b600081359050612d3c81612d16565b92915050565b60008060408385031215612d5957612d586126e1565b5b6000612d678582860161292e565b9250506020612d7885828601612d2d565b9150509250929050565b600067ffffffffffffffff821115612d9d57612d9c612a0a565b5b612da6826127ec565b9050602081019050919050565b6000612dc6612dc184612d82565b612a6a565b905082815260208101848484011115612de257612de1612a05565b5b612ded848285612ab6565b509392505050565b600082601f830112612e0a57612e09612a00565b5b8135612e1a848260208601612db3565b91505092915050565b60008060008060808587031215612e3d57612e3c6126e1565b5b6000612e4b8782880161292e565b9450506020612e5c8782880161292e565b9350506040612e6d87828801612879565b925050606085013567ffffffffffffffff811115612e8e57612e8d6126e6565b5b612e9a87828801612df5565b91505092959194509250565b60008060408385031215612ebd57612ebc6126e1565b5b6000612ecb8582860161292e565b9250506020612edc8582860161292e565b9150509250929050565b7f4e487b7100000000000000000000000000000000000000000000000000000000600052602260045260246000fd5b60006002820490506001821680612f2d57607f821691505b602082108103612f4057612f3f612ee6565b5b50919050565b6000606082019050612f5b60008301866128ed565b612f686020830185612983565b612f7560408301846128ed565b949350505050565b600081905092915050565b6000612f93826127a6565b612f9d8185612f7d565b9350612fad8185602086016127c2565b80840191505092915050565b6000612fc58284612f88565b915081905092915050565b7f796f757420494420697320616c72656164792072656769737465726564000000600082015250565b6000613006601d836127b1565b915061301182612fd0565b602082019050919050565b6000602082019050818103600083015261303581612ff9565b9050919050565b7f796f7574206163636f756e7420697320616c726561647920726567697374657260008201527f6564000000000000000000000000000000000000000000000000000000000000602082015250565b60006130986022836127b1565b91506130a38261303c565b604082019050919050565b600060208201905081810360008301526130c78161308b565b9050919050565b60008190508160005260206000209050919050565b60006020601f8301049050919050565b600082821b905092915050565b6000600883026131307fffffffffffffffffffffffffffffffffffffffffffffffffffffffffffffffff826130f3565b61313a86836130f3565b95508019841693508086168417925050509392505050565b6000819050919050565b600061317761317261316d84612858565b613152565b612858565b9050919050565b6000819050919050565b6131918361315c565b6131a561319d8261317e565b848454613100565b825550505050565b600090565b6131ba6131ad565b6131c5818484613188565b505050565b5b818110156131e9576131de6000826131b2565b6001810190506131cb565b5050565b601f82111561322e576131ff816130ce565b613208846130e3565b81016020851015613217578190505b61322b613223856130e3565b8301826131ca565b50505b505050565b600082821c905092915050565b600061325160001984600802613233565b1980831691505092915050565b600061326a8383613240565b9150826002028217905092915050565b613283826127a6565b67ffffffffffffffff81111561329c5761329b612a0a565b5b6132a68254612f15565b6132b18282856131ed565b600060209050601f8311600181146132e457600084156132d2578287015190505b6132dc858261325e565b865550613344565b601f1984166132f2866130ce565b60005b8281101561331a578489015182556001820191506020850194506020810190506132f5565b868310156133375784890151613333601f891682613240565b8355505b6001600288020188555050505b505050505050565b7f73616c65206861736e277420626567696e000000000000000000000000000000600082015250565b60006133826011836127b1565b915061338d8261334c565b602082019050919050565b600060208201905081810360008301526133b181613375565b9050919050565b7f416c6c207469636b6574732068617665206265656e20736f6c64000000000000600082015250565b60006133ee601a836127b1565b91506133f9826133b8565b602082019050919050565b6000602082019050818103600083015261341d816133e1565b9050919050565b7f54686973204944206973206e6f74207265676973746572656400000000000000600082015250565b600061345a6019836127b1565b915061346582613424565b602082019050919050565b600060208201905081810360008301526134898161344d565b9050919050565b7f54686973204944206973206e6f74207573696e67207468652062696e6465642060008201527f72656769737465726564206163636f756e740000000000000000000000000000602082015250565b60006134ec6032836127b1565b91506134f782613490565b604082019050919050565b6000602082019050818103600083015261351b816134df565b9050919050565b7f596f7520616c7265616479206f776e2061207469636b65740000000000000000600082015250565b60006135586018836127b1565b915061356382613522565b602082019050919050565b600060208201905081810360008301526135878161354b565b9050919050565b7f4e6f7420656e6f7567682045746865722073656e740000000000000000000000600082015250565b60006135c46015836127b1565b91506135cf8261358e565b602082019050919050565b600060208201905081810360008301526135f3816135b7565b9050919050565b7f746f6f206d7563682045746865722073656e7400000000000000000000000000600082015250565b60006136306013836127b1565b915061363b826135fa565b602082019050919050565b6000602082019050818103600083015261365f81613623565b9050919050565b7f4e487b7100000000000000000000000000000000000000000000000000000000600052601160045260246000fd5b60006136a082612858565b91506136ab83612858565b92508282019050808211156136c3576136c2613666565b5b92915050565b7f4e487b7100000000000000000000000000000000000000000000000000000000600052603260045260246000fd5b600061370382612858565b91507fffffffffffffffffffffffffffffffffffffffffffffffffffffffffffffffff820361373557613734613666565b5b600182019050919050565b600061374c8285612f88565b91506137588284612f88565b91508190509392505050565b7f43616e6e6f74206265207472616e736665726564000000000000000000000000600082015250565b600061379a6014836127b1565b91506137a582613764565b602082019050919050565b600060208201905081810360008301526137c98161378d565b9050919050565b600081519050919050565b600082825260208201905092915050565b60006137f7826137d0565b61380181856137db565b93506138118185602086016127c2565b61381a816127ec565b840191505092915050565b600060808201905061383a60008301876128ed565b61384760208301866128ed565b6138546040830185612983565b818103606083015261386681846137ec565b905095945050505050565b60008151905061388081612717565b92915050565b60006020828403121561389c5761389b6126e1565b5b60006138aa84828501613871565b91505092915050565b7f4e487b7100000000000000000000000000000000000000000000000000000000600052601260045260246000fd5b60006040820190506138f760008301856128ed565b6139046020830184612983565b939250505056fea2646970667358221220e718d6dbb9897be86460ad44b410ab8f95fbb5b7df19c6030406814b0dc462b164736f6c634300081b0033a2646970667358221220805bb0601f51c53b989f32a92e96ae3046c523febcc8c1cb26b785d9a44546e664736f6c634300081b0033",
  "linkReferences": {},
  "deployedLinkReferences": {}
}